:020000040800F2
:1000000060680020990100083103000829030008F6
:100010002D0300080D020008E70900080000000099
:1000200000000000000000000000000001010008C6
:10003000110200080000000045010008A9050008A1
:10004000B3010008B3010008B3010008B3010008C0
:10005000B3010008B3010008B3010008B3010008B0
:10006000B3010008B3010008B3010008B3010008A0
:10007000B3010008B3010008B3010008B301000890
:10008000B3010008B3010008B3010008B301000880
:10009000B3010008B3010008B3010008B301000870
:1000A000B3010008B3010008B3010008B301000860
:1000B000B3010008B3010008B3010008B301000850
:1000C000B3010008B3010008B3010008B301000840
:1000D000B3010008E1060008B3010008B3010008FD
:1000E000B3010008B3010008B3010008DFF80CD029
:1000F00000F07AF800480047090C0008606800200A
:10010000224B19680868B0E8F00F80F30988BFF344
:100110006F8F4FF0000080F311884EF00D0E704786
:100120000000000006480068006880F3088862B696
:1001300061B6BFF34F8FBFF36F8F00DF00BF00BF0B
:1001400008ED00E0EFF30980BFF36F8F0F4B1A68E3
:1001500020E9F00F106008B54FF0500080F31188CF
:10016000BFF34F8FBFF36F8F01F058FA4FF00000CD
:1001700080F31188BDE8084019680868B0E8F00FFE
:1001800080F30988BFF36F8F704700BF30000020F5
:10019000EFF3058070470000064880470648004797
:1001A000FEE7FEE7FEE7FEE7FEE7FEE7FEE7FEE727
:1001B000FEE7FEE715060008ED00000830B50B4627
:1001C000014600202022012409E021FA02F59D4287
:1001D00005D303FA02F5491B04FA02F52844151E5B
:1001E000A2F10102F1DC30BD064C074D06E0E068EB
:1001F00040F0010394E8070098471034AC42F6D36E
:10020000FFF778FF981A0008B81A000800BFFEE749
:1002100070472DE9F041024600250026002000230A
:100220000024002791F803C00CF00F0591F803C0DB
:100230000CF0100CBCF1000F03D091F802C04CEA96
:10024000050591F800C0BCF1000F31D01468002002
:100250002BE04FF0010C0CFA00F3B1F800C00CEAEF
:1002600003069E4220D183004FF00F0C0CFA03F7D7
:10027000BC4305FA03FC4CEA040491F803C0BCF14A
:10028000280F06D14FF0010C0CFA00FCC2F814C084
:100290000AE091F803C0BCF1480F05D14FF0010C02
:1002A0000CFA00FCC2F810C0401C0828D1D314601E
:1002B000B1F800C0BCF1FF0F34DD546800202EE01F
:1002C00000F1080C4FF0010808FA0CF3B1F800C077
:1002D0000CEA03069E4221D183004FF00F0C0CFA6A
:1002E00003F7BC4305FA03FC4CEA040491F803C08D
:1002F000BCF1280F05D100F1080C08FA0CF8C2F87F
:10030000148091F803C0BCF1480F07D100F1080C2C
:100310004FF0010808FA0CF8C2F81080401C0828B9
:10032000CED35460BDE8F08100BFFEE700BFFEE71A
:100330007047000070B5002100230F22C47804B379
:10034000154C246804F4E064C4F5E064210AC1F1AA
:100350000403CA40447804FA03F18478144021432A
:1003600009010E4C0678A155047804F01F050124FC
:10037000AC4005786D11AD0005F1E025C5F80041F0
:1003800009E0047804F01F050124AC40044D067810
:10039000761145F8264070BD0CED00E000E400E069
:1003A00080E100E029B1064A92690243044B9A6158
:1003B00004E0034A92698243014B9A61704700004E
:1003C0000010024030B500210022002400232D4DF2
:1003D0006D6805F00C0121B1042905D0082923D14D
:1003E00005E0294D056022E0274D05601FE0254D01
:1003F0006D6805F47012234D6D6805F48034022594
:1004000005EB92421CB9214D554305600BE01D4D93
:100410006D6805F400351DB11C4D5543056002E0C3
:10042000194D5543056002E0174D056000BF00BF40
:10043000144D6D6805F0F0010909154D6B5C0568F8
:10044000DD4045600F4D6D6805F4E061090A104D0F
:100450006B5C4568DD4085600A4D6D6805F4605150
:10046000C90A0B4D6B5C4568DD40C560054D6D6884
:1004700005F44041890B074D6B5CC568B5FBF3F58E
:10048000056130BD0010024000127A0000093D00F5
:10049000000000201000002010B500F001F810BD91
:1004A0000CB50020019000903348006840F4803083
:1004B0003149086000BF3048006800F40030009007
:1004C0000198401C0190009818B90198B0F5A06FF0
:1004D000F1D12948006800F4003010B101200090EB
:1004E00001E0002000900098012843D123480068D3
:1004F00040F01000214908600846006820F0030021
:1005000008600846006840F0020008601A48406829
:10051000194948600846406848600846406840F409
:10052000806048600846406820F47C1048600846B7
:10053000406840F4E81048600846006840F0807069
:10054000086000BF0C48006800F000700028F9D077
:100550000948406820F003000749486008464068A1
:1005600040F00200486000BF0348406800F00C0003
:100570000828F9D10CBD0000001002400020024004
:10058000042808D14FF0E021096941F004014FF03F
:10059000E022116107E04FF0E021096921F0040138
:1005A0004FF0E0221161704710B501F025F90128E4
:1005B00001D001F0D7F810BD70B505460420FFF753
:1005C000DFFF104800681049B0FBF1F00F490870D8
:1005D0000C4800680C49B0FBF1F44FF47A704443C6
:1005E00001200B4908804FF0E020006940F0020034
:1005F0004FF0E021086108464461006940F00100C5
:10060000086170BD1C00002040420F001400002053
:100610001600002010B51348006840F00100114991
:10062000086008464068104908400E49486008467E
:1006300000680E4908400B4908600846006820F42D
:10064000802008600846406820F4FE0048604FF4AF
:100650001F008860FFF720FF4FF00060044908602A
:1006600010BD0000001002400000FFF8FFFFF6FE82
:1006700008ED00E000BF0FE00121084A11700021E1
:10068000074A1170002004E00121064A42F82010B8
:10069000401CB0F5E16FF7DBEEE700001A00002028
:1006A0001B0000205C01002000BF12E0002009496F
:1006B0000870012008490870022000F01BFF002488
:1006C00004E00220054941F82400641CB4F5E16F00
:1006D000F7DBEBE71A0000201B0000205C01002084
:1006E00010B540F225511D4800F0B8F810B31B4872
:1006F00000F070F9C4B21A48008800F40040C8B98C
:100700001748008800F4804060B10A2C03D0002014
:100710001349088020E01248008840F40040104946
:10072000088019E00D2C06D10D48008840F4804067
:100730000B49088010E00A480088C0F30D00094901
:100740000C5407480088401C05490880084600886A
:10075000C72801DD0020088010BD000000380140DE
:10076000180000209400002010B586B00446012136
:100770000420FFF717FE01218803FFF713FE4FF453
:100780000070ADF8140003208DF8160018208DF8C5
:10079000170005A91E48FFF73CFD4FF48060ADF837
:1007A000140004208DF8170005A91948FFF731FD42
:1007B00001940020ADF80800ADF80A00ADF80C0077
:1007C000ADF810000C20ADF80E0001A9114800F0A2
:1007D00095F801210F4800F028F840210D4800F05D
:1007E0001BF8012240F225510A4800F061F825204B
:1007F0008DF8000003208DF801008DF80200012023
:100800008DF803006846FFF795FD06B010BD0000A7
:10081000000801400038014001F40072B2F5007F89
:1008200000D100BFCA430280704721B1828942F4DF
:100830000052828104E082894DF6FF731A40828162
:10084000704702460020B1F5007F00D100BF138839
:100850000B400BB1012000E00020704770B502464C
:10086000002400230025002040F66A16B14200D182
:1008700000BFC1F3421501F01F03012606FA03F37E
:10088000012D02D19689334006E0022D02D1168A4D
:10089000334001E0968A33400C12012606FA04F434
:1008A0001688344013B10CB1012000E0002070BD67
:1008B000F0B50346002400260025002040F66A1704
:1008C000B94200D100BF1846C1F3421401F01F061F
:1008D000012707FA06F5012C01D10C3004E0022CA7
:1008E00001D1103000E014301AB107682F430760BF
:1008F00002E00768AF430760F0BD00002DE9F04754
:1009000086B005460E460024A24600BFA146002739
:10091000B08900B100BF2F462C8A4CF6FF7004400E
:10092000F08804432C82AC894EF6F3100440B08862
:1009300031890843718908430443AC81AC8A4FF67E
:10094000FF400440B0890443AC8201A8FFF73AFDA0
:100950001F48874202D1DDF810A001E0DDF80CA0AD
:10096000A88900F4004040B10AEBCA0000EB0A106D
:1009700031684900B0FBF1F807E00AEBCA0000EB70
:100980000A1031688900B0FBF1F86420B8FBF0F080
:1009900004012009642101FB1089A88900F40040AA
:1009A00040B1322000EBC900B0FBF1F000F00700CD
:1009B000044308E0322000EB09106421B0FBF1F0A1
:1009C00000F00F0004432C8106B0BDE8F087000062
:1009D0000038014001468888C0F308007047C1F321
:1009E00008028280704700BFFEE700000FB4054B8D
:1009F00010B503A9044A029800F018F810BC5DF87D
:100A000014FB0000E50B00089000002002E008C87D
:100A1000121F08C1002AFAD170477047002001E078
:100A200001C1121F002AFBD1704700002DE9FF4FC2
:100A30008BB09A460F460546002606E025280BD0C7
:100A400052460D9990476D1C761C28780028F5D1E8
:100A50000FB03046BDE8F08F0024A0460122604967
:100A600000E0044315F8013F203B02FA03F008427E
:100A7000F7D128782E2817D115F8010F44F0040477
:100A80002A280ED06FF02F022878A0F13001092912
:100A90000AD808EB880102EB410100EB01086D1C4C
:100AA000F2E757F8048B6D1C287869283ED006DCE5
:100AB0000028CDD063280BD0642804D136E07328F9
:100AC00010D075284BD052460D999047761C85E082
:100AD00017F8040B8DF8000000208DF80100E9469E
:100AE000012003E057F8049B4FF0FF3061074FF0FF
:100AF000000401D40AE0641C44450DDA8442FADBA8
:100B000019F804100029F6D106E0641C8442FCDBCD
:100B100019F804100029F8D1264404E019F8010B53
:100B200052460D999047641EF8D257E001CF4FF01E
:100B30000A0B002802DA40422D2102E0210504D5EB
:100B40002B218DF82410012103E0E10705D020219D
:100B5000F7E70DF1200908910CE00021F9E701CF3A
:100B60004FF00A0BF9E75946FFF728FB01F1300275
:100B700009F8012D0028F6D1ADEB090000F1200B9A
:100B8000600701D44FF00108D84502DDA8EB0B0047
:100B900000E000208046002406E009A85246005DDF
:100BA0000D999047641C761C08988442F5DB04E09C
:100BB000302052460D999047761CB8F10001A8F1FB
:100BC0000108F5DC05E019F8010B52460D99904734
:100BD000761CBBF10001ABF1010BF4DC6D1C34E7BA
:100BE0000928010070B504460D46E1B20548FFF73B
:100BF000F6FE00BF80210348FFF723FE0028F9D04E
:100C0000204670BD003801401CB54820FFF7D4FCD9
:100C10004FF4E130FFF7A8FD0DA0FFF7E7FE00203D
:100C200001210346C822CDE900100EA10F4800F0B3
:100C3000B3FD002001210346C822CDE900100CA11C
:100C40000D4800F0A9FD00F08FFC00201CBD000045
:100C5000B4AEBFDAB3F5CABCBBAFB3C9B9A6A3A1E2
:100C60000D0A00007461736B310000007506000806
:100C70007461736B32000000A90600082DE9F04191
:100C800005460E461C4807681C480068001D00F019
:100C9000FFFA50B91948006890F82C1001208840DC
:100CA00017490968814316480160681C38B936B194
:100CB00012480168091D134800F028FB1AE07C194E
:100CC0000E4800684460BC4207D20C480168091D08
:100CD0000D48006800F000FB0CE008480168091DA1
:100CE0000A48006800F0F8FA09480068844201D216
:100CF00007480460BDE8F081440000203000002077
:100D0000480000204C200020380000203400002043
:100D10006000002010B5044600F004FB2348006882
:100D2000401C224908602248006840B920480460FD
:100D30000846006801280DD100F034F90AE01D488A
:100D4000006838B91A480068C06AE16A884201D868
:100D50001748046018480068401C1749086094F858
:100D60002C10012088401549096808431349086080
:100D7000E16A01EB8101124A02EB8100211D00F0C2
:100D8000C5FA00F013FB0B48006868B1084800681A
:100D9000C06AE16A884207D24FF080500949086072
:100DA000BFF34F8FBFF36F8F10BD000040000020D6
:100DB000300000204C0000205C0000204800002093
:100DC0007C1D002004ED00E070B523E000F01EFC67
:100DD0001348006808B9012000E00020054600F033
:100DE000CBFDBDB900F09EFA0D48C068C468201D57
:100DF00000F04EFA0B480068401E0A4908600A4895
:100E00000068401E0849086000F0D0FA204600F053
:100E10000DF800BF044800680028D7D170BD00005D
:100E200038200020400000203C00002010B504467F
:100E3000206B00F0F3FA204600F0F0FA10BD00003D
:100E400030B54FF48843174800F007042CB1C01D9B
:100E500020F00700134C041B1B1B0246124C22609F
:100E60000024114D6C60D018083820F007000F4C9A
:100E7000206000240D4D2D686C600C4D2D682C6099
:100E80001146441A4C60094C24680C60084D4C68AB
:100E90002C60084D4C682C604FF00044064D2C60CF
:100EA00030BD0000602000206C0000207400002095
:100EB0007C000020780000208000002000BFFFF7A9
:100EC00083FF064800680128F9D94FF08050044993
:100ED0000860BFF34F8FBFF36F8FF0E77C1D0020DA
:100EE00004ED00E02DE9FF5F81460E469246DDE904
:100EF0000E7B109CAAF10100216B01EB800828F009
:100F0000070808F0070008B9012000E0002028B910
:100F100040F22B321AA11FA0FFF768FD002507E061
:100F2000715D04F134004155705D00B902E06D1C43
:100F3000102DF5D300BF002143200155202F00D3F1
:100F40001F27E762201D00F0C4F904F1180000F02B
:100F5000C0F92461C7F12000A061646200206064D0
:100F600084F8480049464046039A00F07FF9206023
:100F7000BBF1000F01D0CBF80040BDE8FF9F00009F
:100F80002E2E5C4672656552544F535C7461736BD0
:100F9000732E63004572726F723A25732C25640DAF
:100FA0000A00000010B5002407E004EB84010F4A9A
:100FB00002EB810000F080F9641C202CF5D30C4872
:100FC00000F07AF90B4800F077F90B4800F074F95B
:100FD0000A4800F071F90A4800F06EF9044809491E
:100FE000086004480849086010BD00007C1D00200E
:100FF000FC1F00201020002024200020382000208A
:101000004C200020340000203800002010B501469C
:10101000164800E0006803688B42FBD30246436831
:1010200013448B4204D143684C6823444360014617
:101030000A464B6813440468A34211D10C4C036860
:101040002468A34208D04B680468646823444B605A
:1010500003681B680B6005E0054B1B680B6001E033
:1010600003680B60884200D0016010BD6C00002056
:10107000740000200A490968096809B9012100E0E3
:10108000002121B14FF0FF31064A116006E004490A
:101090000968C968C868034A416811607047000060
:1010A00034000020600000200B480068401C08B994
:1010B000012000E0002020B9F42208A112A0FFF7CF
:1010C00095FC00BF502080F31188BFF34F8FBFF312
:1010D0006F8F00BF00BFFEE7840000202E2E5C460D
:1010E00072656552544F535C706F727461626C65C7
:1010F0005C525644535C41524D5F434D335C706FBC
:1011000072742E63000000004572726F723A25738C
:101110002C25640D0A0000002DE9F04104464FF033
:10112000000800F073FA3E48006808B9FFF788FE2F
:101130003C480068204000285FD1A4B1083404F086
:10114000070080B104F00700C0F10800044404F077
:10115000070008B9012000E0002020B9BF2232A119
:101160003BA0FFF743FC002C47D03D480068844279
:1011700043D83C4E3046056801E02E462D6868682D
:10118000A04202D228680028F7D12548006885428D
:1011900033D0306800F10808286830606868001BA8
:1011A000102813D92F1907F0070008B9012000E013
:1011B000002020B9EC221CA125A0FFF717FC6868CD
:1011C000001B78606C603846FFF720FF2449686890
:1011D0000968081A22490860084600682249096817
:1011E000884203D21E4800681F4908600D4968689C
:1011F0000968084368600020286000F0BDFB08F023
:10120000070008B9012000E0002028B94FF49672C9
:1012100005A10FA0FFF7EAFB4046BDE8F081000002
:1012200074000020800000202E2E5C4672656552FE
:10123000544F535C706F727461626C655C4D656D88
:101240004D616E675C686561705F342E63000000FD
:101250004572726F723A25732C25640D0A000000E6
:10126000780000206C0000207C000020001F4FF060
:1012700080730360001F21F001030360001F034B14
:10128000036014380260203870470000A91000087D
:1012900001460A69D1E901309860D1E9010358603B
:1012A0005068884201D18868506000200861106849
:1012B000401E10601068704700F1080141604FF057
:1012C000FF31816000F10801C1600161002101600E
:1012D000704700210161704710B502460B685C1C25
:1012E0000CB9106907E002F1080000E040684468AA
:1012F00024689C42FAD944684C604C68A1608860BC
:1013000041600A611468641C146010BD42684A6040
:1013100093688B60936859609160086103685B1CF7
:101320000360704710B500BF502080F31188BFF3F1
:101330004F8FBFF36F8F00BF0B480068401C0A49F6
:1013400008600846006801280DD108480068C0B24E
:1013500008B9012000E0002028B94FF4BD7204A1B3
:101360000EA0FFF743FB10BD8400002004ED00E059
:101370002E2E5C4672656552544F535C706F7274CA
:1013800061626C655C525644535C41524D5F434D03
:10139000335C706F72742E63000000004572726FD0
:1013A000723A25732C25640D0A00000010B50B4815
:1013B000006828B940F2811209A114A0FFF716FBBA
:1013C00006480068401E054908600846006820B9C4
:1013D000002080F3118800BF00BF10BD84000020F2
:1013E0002E2E5C4672656552544F535C706F72745A
:1013F00061626C655C525644535C41524D5F434D93
:10140000335C706F72742E63000000004572726F5F
:10141000723A25732C25640D0A00000070B506464B
:101420003546002E35D0083D2C461A4960680968BB
:10143000084008B1012000E0002028B94FF4A07254
:1014400015A11FA0FFF7D2FA206808B9012000E01B
:10145000002028B940F241120FA119A0FFF7C6FAE7
:101460000C4960680968084098B1206888B9094942
:10147000606809688843606000F0C8F814496068D3
:1014800009680844124908602046FFF7BFFD00F0D4
:1014900073FA70BD800000202E2E5C467265655286
:1014A000544F535C706F727461626C655C4D656D16
:1014B0004D616E675C686561705F342E630000008B
:1014C0004572726F723A25732C25640D0A00000074
:1014D00078000020064800684FF47A71B0FBF1F004
:1014E000401E4FF0E021486107200861704700006E
:1014F0001C00002070B504460025ACB10F48006800
:1015000008B9012000E0002028B940F2CF420CA128
:1015100010A0FFF76BFA00F079F800212046FFF7E2
:10152000ADFB00F029FA05463DB94FF080500D495A
:101530000860BFF34F8FBFF36F8F70BD680000204E
:101540002E2E5C4672656552544F535C7461736B0A
:10155000732E63004572726F723A25732C25640DE9
:101560000A00000004ED00E01CB5184800210B46FD
:101570008022CDE9001016A1174800F00DF90446AD
:10158000012C15D100BF502080F31188BFF34F8F7D
:10159000BFF36F8F00BF4FF0FF301049086001208C
:1015A0000F49086000200F49086000F08BF80BE03D
:1015B000601C08B1012000E0002028B940F28472CC
:1015C00009A10EA0FFF712FA1CBD00006400002064
:1015D00049444C4500000000BD0E0008600000209A
:1015E0004C000020440000202E2E5C46726565529F
:1015F000544F535C7461736B732E63004572726F4A
:10160000723A25732C25640D0A0000000248006818
:10161000401C0149086070476800002010B51B4855
:10162000006818B101201A4908602DE0002018490F
:10163000086018480068B0FA80F0C0F11F0404EB9D
:101640008400154951F8200008B1012000E0002075
:1016500028B940F6F62211A115A0FFF7C7F904EB4F
:1016600084010D4A02EB810041684968416000F144
:10167000080142688A4202D1416849684160416874
:10168000C9680F4A116000BF10BD0000680000204B
:1016900054000020480000207C1D00202E2E5C46B7
:1016A00072656552544F535C7461736B732E6300A3
:1016B0004572726F723A25732C25640D0A00000082
:1016C000300000201CB52248014609780191FF2115
:1016D000024611700146097800919DF8001001F052
:1016E00050011C4A117007211B4A116009E01A4978
:1016F0000968491E184A11609DF800104906090E34
:1017000000919DF8001001F080018029EFD012496E
:1017100009680902104A11601146098801F4E06164
:1017200011600B4A019911700C48006840F4700078
:101730000A4908600846006840F070400860FFF7FA
:10174000C9FE002006490860FEF7ECFC00201CBD25
:1017500000E400E0880000208C00002020ED00E084
:101760008400002010B500BF502080F31188BFF323
:101770004F8FBFF36F8F00BF00F04EF818B14FF0DE
:1017800080500449086000BF002080F3118800BF2A
:1017900010BD000004ED00E02DE9FF4F85B080464C
:1017A00089461746DDE912ABB800FFF7B5FC0646DF
:1017B00056B14C20FFF7B0FC04460CB1266304E0A0
:1017C0003046FFF72BFE00E000247CB10020CDE97D
:1017D00000ABCDE902403A4649464046089BFFF738
:1017E00081FB2046FFF796FA012501E04FF0FF3517
:1017F000284609B0BDE8F08F0549096809B90120FC
:1018000005E00449096809B9022000E0002070479A
:101810004C000020680000202DE9F0414FF0000846
:1018200041480068002872D140480068451C3F4884
:101830000560EDB93E480068006808B9012000E085
:10184000002028B940F6D9123AA13FA0FFF7CEF800
:101850003748076840480068354908603E480760D7
:101860003E480068401C3D490860FFF703FC00BF8C
:101870003B48006885423CD300BF2D4800680068A3
:1018800008B9012000E0002020B14FF0FF303449BA
:1018900008602DE026480068C068C4686668B542E4
:1018A00002D22F48066023E0201DFFF7F1FCA06A5A
:1018B00018B104F11800FFF7EBFC94F82C1001208C
:1018C000884028490968084326490860E16A01EB15
:1018D0008101254A02EB8100211DFFF717FD2349F5
:1018E000E06A0968C96A8842C7D34FF00108C4E7B3
:1018F00000BF1E480068C06A00EB80001A4951F81A
:101900002000012801D94FF0010805E0FFE7184841
:101910000068401C164908601648006808B14FF07E
:1019200001084046BDE8F081680000204400002026
:10193000340000202E2E5C4672656552544F535C75
:101940007461736B732E63004572726F723A257304
:101950002C25640D0A0000003800002058000020EB
:1019600060000020480000207C1D00203000002086
:10197000500000205400002070B500240026344898
:10198000006828B94FF4FD6232A137A0FFF72EF8A6
:10199000FFF7C8FC2E480068401E2D490860084625
:1019A000006800284FD13448006800284BD024E05C
:1019B0003248C068C46804F11800FFF769FC201DB4
:1019C000FFF766FC94F82C10012088402C49096828
:1019D00008432B490860E16A01EB8101294A02EBC7
:1019E0008100211DFFF792FC2749E06A0968C96A56
:1019F000884202D30120254908602048006808B9C0
:101A0000012000E000200028D2D00CB1FFF732FB0B
:101A10001F48056865B100BFFFF7FEFE10B1012049
:101A20001A4908606D1E002DF6D100201849086083
:101A30001648006838B10126300716490860BFF320
:101A40004F8FBFF36F8FFFF7B1FC304670BD0000C2
:101A5000680000202E2E5C4672656552544F535C20
:101A60007461736B732E63004572726F723A2573E3
:101A70002C25640D0A0000004000002024200020D6
:101A8000480000207C1D0020300000205400002071
:101A90005000002004ED00E0B81A0008000000200B
:101AA000940000000C0A00084C1B00089400002061
:101AB000CC6700001C0A00080000000001020304BB
:101AC00001020304060708090204060800000000DA
:101AD0000000000000A24A04000000000000000016
:101AE00001020304060708090000000000000000CE
:101AF00000000000000000000000000000000000E6
:101B000000000000000000000000000000000000D5
:101B100000000000000000000000000000000000C5
:101B200000000000000000000000000000000000B5
:101B3000000000000000000000000000AAAAAAAAFD
:0C1B400000000000000000000000000099
:04000005080000ED02
:00000001FF
