:020000040800F2
:10000000484C0020DD010008870800087F08000830
:100010008308000863070008150F000800000000AF
:100020000000000000000000000000004501000882
:10003000670700080000000089010008110B000894
:10004000F7010008F7010008F7010008F7010008B0
:10005000F7010008F7010008F7010008F7010008A0
:10006000F7010008F7010008F7010008F701000890
:10007000F7010008F7010008F7010008F701000880
:10008000F7010008F7010008F7010008F701000870
:10009000F7010008F7010008F7010008F701000860
:1000A000F7010008F7010008F7010008F701000850
:1000B000F7010008F7010008F7010008F701000840
:1000C000F7010008F7010008F7010008F701000830
:1000D000F7010008DD0B0008F7010008F701000830
:1000E000F7010008F7010008F7010008F701000810
:1000F000F7010008F7010008F7010008F701000800
:10010000F7010008F7010008F7010008F7010008EF
:10011000F7010008F7010008F7010008F7010008DF
:10012000F7010008F7010008F7010008F7010008CF
:10013000DFF80CD000F0D2FA004800471118000890
:10014000484C0020224B19680868B0E8F00F80F393
:100150000988BFF36F8F4FF0000080F311884EF0D5
:100160000D0E70470000000006480068006880F32C
:10017000088862B661B6BFF34F8FBFF36F8F00DFA1
:1001800000BF00BF08ED00E0EFF30980BFF36F8F01
:100190000F4B1A6820E9F00F106008B54FF05000BF
:1001A00080F31188BFF34F8FBFF36F8F02F008FA0F
:1001B0004FF0000080F31188BDE808401968086816
:1001C000B0E8F00F80F30988BFF36F8F704700BF6E
:1001D00038000020EFF30580704700000648804794
:1001E00006480047FEE7FEE7FEE7FEE7FEE7FEE71C
:1001F000FEE7FEE7FEE7FEE77D0B000831010008A1
:1002000040EA01039B0703D009E008C9121F08C098
:10021000042AFAD203E011F8013B00F8013B521E18
:10022000F9D270472DE9FE4F81EA030404F000443F
:1002300021F0004100944FF0000B23F0004350EAFE
:1002400001045ED052EA03045BD0C3F30A54C1F345
:100250000A552C44A4F2F3340194A0FB0254C1F3D8
:10026000130141F48011C3F3130343F4801301FB22
:10027000024400FB034E840A970A44EA815447EA89
:100280008357A4FB076802958D0A05FB07854FEA93
:10029000932C04FB0C542705029D4FEA065847EAAD
:1002A0001637B5EB08056EEB070C870E920E47EA82
:1002B000811742EA8312A7FB0201B6EB0B0164EB44
:1002C00000042B0D43EA0C335E1844EB1C50DA4655
:1002D0005146E7FB0201C5F313044FEA0B3343EA2F
:1002E00014534FEA0432019C43EA0603A4F10C04C0
:1002F0000294009CCDE900B400F0CBF803B0BDE857
:10030000F08F00200146F9E72DE9F04D81EA030462
:1003100004F0004B21F0004514464FF0000A23F092
:10032000004150EA050220D054EA01021DD0C5F375
:100330000A570246C5F31303C1F31300C1F30A566B
:1003400040F4801543F48013A7EB0608101BD64633
:1003500008F2FD3873EB050002D308F1010801E053
:1003600092185B41B8F1000F03DA00200146BDE8A6
:10037000F08D00204FF48011064684460EE0171BD6
:1003800073EB050705D3121B63EB050306434CEA29
:10039000010C49084FEA300092185B4150EA01070E
:1003A000EDD152EA030012D082EA040083EA05018B
:1003B000084305D0101BAB4106D20122002306E002
:1003C00000224FF0004302E06FF0010253101AEBDD
:1003D00006004CEB085110EB0A0041EB0B01BDE8A5
:1003E000F04D00F047B830B50B4601460020202202
:1003F000012409E021FA02F59D4205D303FA02F532
:10040000491B04FA02F52844151EA2F10102F1DC91
:1004100030BD2DE9F05F0546002092469B46884698
:100420000646814640241BE0284641464746224670
:1004300000F075F953465A46C01A914110D311463F
:100440001846224600F05CF92D1A67EB01084F466A
:1004500022460120002100F053F917EB00094E411C
:10046000201EA4F10104DFDC484631462A464346FB
:10047000BDE8F09F10B5141E73F1000408DA401CAB
:1004800041F1000192185B411A4301D120F00100B3
:1004900010BD2DE9F04D92469B4611B1B1FA81F2A3
:1004A00002E0B0FA80F22032904600F029F90446CA
:1004B0000F4640EA0A0041EA0B0153465A460843F8
:1004C00013D0114653EA010019D0C8F1400250463A
:1004D00000F025F905460E4650465946424600F0C2
:1004E0000FF9084305D0012004E020463946BDE855
:1004F000F08D0020054346EAE0762C4337430A9806
:100500006305E40AA0EB08000022FD0A44EA475410
:100510000A3002D500200146E9E7010510196941BA
:10052000DDE9084500196941BDE8F04DA2E72DE974
:10053000FE4F804681EA0300C00F0C46009021F078
:10054000004123F00045B8EB0200A94105D2404626
:10055000214690461C460B46024623F000401043BD
:1005600047D0270DC7F30A00C3F30A510290401A7F
:10057000019040286BDAC3F3130040F4801B00980D
:10058000924620B10023D2EB030A63EB0B0B0198D8
:100590005946C0F14002504600F0B2F806460D46FA
:1005A00050465946019A00F0CAF810EB0800614124
:1005B000002487EA115284EAE7731A4340D0009A74
:1005C00062B3019A012A4FEA075215DC001B61EB66
:1005D00002014FF0004202EA0752CDE90042001C3E
:1005E00041F5801132462B46FFF753FF03B0BDE8BB
:1005F000F08F40462146F9E7001B61EB0201001C29
:1006000041F5801300185B412018A2F5001747EB55
:10061000030140EAD570B6196D4111E06D084FEA4B
:10062000360645EAC0754FEA0752001B61EB02012E
:10063000001C41F5801149084FEA30000019514172
:1006400032462B4603B0BDE8F04FFFF713BF0098CA
:10065000012240000023D0EB020263EBE07300981C
:1006600021464FEAE074B8EB000061EB0401E9E7D2
:1006700083F000435BE781F0004158E7C1F30A5281
:10068000C1F3130140F2FF3341F480119A4202DAC0
:1006900000200146704740F233439A42A2F23342AF
:1006A00002DC524200F03BB800F02AB830B5041E1C
:1006B00071F1000404DB4FF00044404264EB01019F
:1006C000141E73F1000405DB1C464FF00043524238
:1006D00063EB0403994208BF904230BD064C074DBE
:1006E00006E0E06840F0010394E807009847103402
:1006F000AC42F6D3FFF720FD5831000878310008EE
:10070000202A04DB203A00FA02F1002070479140D1
:10071000C2F1200320FA03F3194390407047202AC6
:1007200004DB203A21FA02F00021704721FA02F39B
:10073000D040C2F120029140084319467047202A58
:1007400006DBCB17203A41FA02F043EAE07306E0F9
:1007500041FA02F3D040C2F1200291400843194609
:10076000704700BFFEE770472DE9F04102460025C3
:100770000026002000230024002791F803C00CF07D
:100780000F0591F803C00CF0100CBCF1000F03D062
:1007900091F802C04CEA050591F800C0BCF1000FC9
:1007A00031D0146800202BE04FF0010C0CFA00F35C
:1007B000B1F800C00CEA03069E4220D183004FF03E
:1007C0000F0C0CFA03F7BC4305FA03FC4CEA0404D3
:1007D00091F803C0BCF1280F06D14FF0010C0CFAC0
:1007E00000FCC2F814C00AE091F803C0BCF1480F45
:1007F00005D14FF0010C0CFA00FCC2F810C0401CEF
:100800000828D1D31460B1F800C0BCF1FF0F34DD6B
:10081000546800202EE000F1080C4FF0010808FA9F
:100820000CF3B1F800C00CEA03069E4221D183000C
:100830004FF00F0C0CFA03F7BC4305FA03FC4CEA2B
:10084000040491F803C0BCF1280F05D100F1080C95
:1008500008FA0CF8C2F8148091F803C0BCF1480FF4
:1008600007D100F1080C4FF0010808FA0CF8C2F8A3
:100870001080401C0828CED35460BDE8F08100BF32
:10088000FEE700BFFEE7704770B5002100230F228E
:10089000C47804B3154C246804F4E064C4F5E0643F
:1008A000210AC1F10403CA40447804FA03F18478B0
:1008B0001440214309010E4C0678A155047804F038
:1008C0001F050124AC4005786D11AD0005F1E02550
:1008D000C5F8004109E0047804F01F050124AC408C
:1008E000044D0678761145F8264070BD0CED00E009
:1008F00000E400E080E100E002490143024A1160A7
:10090000704700000000FA050CED00E029B1064A2E
:1009100092690243044B9A6104E0034A926982435C
:10092000014B9A61704700000010024030B5002171
:100930000022002400232D4D6D6805F00C0121B12B
:10094000042905D0082923D105E0294D056022E0BE
:10095000274D05601FE0254D6D6805F47012234D8D
:100960006D6805F48034022505EB92421CB9214DD7
:10097000554305600BE01D4D6D6805F400351DB154
:100980001C4D5543056002E0194D5543056002E0DA
:10099000174D056000BF00BF144D6D6805F0F001F4
:1009A0000909154D6B5C0568DD4045600F4D6D68AC
:1009B00005F4E061090A104D6B5C4568DD40856017
:1009C0000A4D6D6805F46051C90A0B4D6B5C4568B2
:1009D000DD40C560054D6D6805F44041890B074D4C
:1009E0006B5CC568B5FBF3F5056130BD00100240D6
:1009F00000127A0000093D000000002010000020D5
:100A000010B500F001F810BD0CB500200190009069
:100A10003348006840F480303149086000BF3048F6
:100A2000006800F4003000900198401C019000988C
:100A300018B90198B0F5A06FF1D12948006800F409
:100A4000003010B10120009001E0002000900098DB
:100A5000012843D12348006840F010002149086074
:100A60000846006820F0030008600846006840F06F
:100A7000020008601A484068194948600846406802
:100A800048600846406840F4806048600846406816
:100A900020F47C1048600846406840F4E810486044
:100AA0000846006840F08070086000BF0C4800688D
:100AB00000F000700028F9D00948406820F00300D9
:100AC000074948600846406840F00200486000BF9F
:100AD0000348406800F00C000828F9D10CBD000064
:100AE0000010024000200240042808D14FF0E0210D
:100AF000096941F004014FF0E022116107E04FF075
:100B0000E021096921F004014FF0E02211617047F2
:100B100010B502F077F9012801D001F0F5FD10BD04
:100B200070B505460420FFF7DFFF10480068104944
:100B3000B0FBF1F00F4908700C4800680C49B0FB9D
:100B4000F1F44FF47A70444301200B4908804FF0D0
:100B5000E020006940F002004FF0E0210861084603
:100B60004461006940F00100086170BD240000206C
:100B700040420F00140000201600002010B513485A
:100B8000006840F0010011490860084640681049BB
:100B900008400E494860084600680E4908400B4965
:100BA00008600846006820F4802008600846406815
:100BB00020F4FE0048604FF41F008860FFF720FF1C
:100BC0004FF000600449086010BD000000100240B2
:100BD0000000FFF8FFFFF6FE08ED00E038B540F238
:100BE00025511F4800F0D6F8D0B11E48008898B9AA
:100BF0001B48001D0088C4B21B4801880088401CA7
:100C0000194A1080194844541648008820B97D2C90
:100C100002D10120134908802021114800F098F8E2
:100C200040F224410E4800F0B5F8C0B110A000F029
:100C300073F90B480088C4B20948001D0088C4B28B
:100C400069461048006801F0E9FF009838B14FF09C
:100C500080500D490860BFF34F8FBFF36F8F38BDD1
:100C600000380140180000201A0000209C000020DD
:100C7000BFD5CFD0D6D0B6CF2CBDD3CAD5CDEAB153
:100C8000CF0D0A001C00002004ED00E010B586B076
:100C9000044601210420FFF739FE01218803FFF7F4
:100CA00035FE4FF40070ADF8140003208DF81600E7
:100CB00018208DF8170005A92348FFF755FD4FF4BC
:100CC0008060ADF8140004208DF8170005A91E48B7
:100CD000FFF74AFD01940020ADF80800ADF80A00C6
:100CE000ADF80C00ADF810000C20ADF80E0001A915
:100CF000164800F09FF82021144800F029F801213F
:100D0000124800F02EF84021104800F021F801228E
:100D100040F225510D4800F067F8012240F22441CD
:100D20000A4800F061F825208DF8000008208DF8B1
:100D3000010000208DF8020001208DF803006846B4
:100D4000FFF7A2FD06B010BD0008014000380140C9
:100D500001F40072B2F5007F00D100BFCA430280E7
:100D6000704721B1828942F40052828104E0828975
:100D70004DF6FF731A408281704702460020B1F59C
:100D8000007F00D100BF13880B400BB1012000E0B1
:100D90000020704770B50246002400230025002083
:100DA00040F66A16B14200D100BFC1F3421501F00E
:100DB0001F03012606FA03F3012D02D19689334061
:100DC00006E0022D02D1168A334001E0968A3340B4
:100DD0000C12012606FA04F41688344013B10CB143
:100DE000012000E0002070BDF0B50346002400267D
:100DF0000025002040F66A17B94200D100BF18460E
:100E0000C1F3421401F01F06012707FA06F5012C71
:100E100001D10C3004E0022C01D1103000E014307C
:100E20001AB107682F43076002E00768AF43076005
:100E3000F0BD00002DE9F04786B005460E460024BF
:100E4000A24600BFA1460027B08900B100BF2F46CF
:100E50002C8A4CF6FF700440F08804432C82AC8945
:100E60004EF6F3100440B088318908437189084375
:100E70000443AC81AC8A4FF6FF400440B089044380
:100E8000AC8201A8FFF752FD1F48874202D1DDF86E
:100E900010A001E0DDF80CA0A88900F4004040B1EA
:100EA0000AEBCA0000EB0A1031684900B0FBF1F808
:100EB00007E00AEBCA0000EB0A1031688900B0FBBA
:100EC000F1F86420B8FBF0F004012009642101FB73
:100ED0001089A88900F4004040B1322000EBC9001D
:100EE000B0FBF1F000F00700044308E0322000EB13
:100EF00009106421B0FBF1F000F00F0004432C81D5
:100F000006B0BDE8F087000000380140C1F30802D8
:100F10008280704700BFFEE70FB4054B10B503A9F0
:100F2000044A029800F0CAF810BC5DF814FB0000F7
:100F3000ED1700089800002002E008C8121F08C141
:100F4000002AFAD170477047002001E001C1121F4A
:100F5000002AFBD1704700002DE9FF5FDDE9022088
:100F6000010DDDF838B0024318D044F61050A1F25C
:100F7000FF3141430D140F98012820D0A5EB0B0041
:100F8000401C5FEA000A4FF00004474EDFF81C9156
:100F9000A046504616D5CAF1000728E00F98012454
:100FA00043A2012808D0002100980F9BC0E900212E
:100FB000C0E90243BDE8FF9F6FEA0B01F4E7CBF104
:100FC0000000DEE7074612E0F80707D02246334666
:100FD00040464946FFF726F9804689462246334671
:100FE00010461946FFF71EF904460E467F10002FE3
:100FF000EAD1DDE90201BAF1000F42464B4602DABE
:10100000FFF710F901E0FFF77FF904460E460022D2
:10101000284BFFF74BFB03D84FF0FF30014607E0AA
:101020000022254B20463146FFF781FAFFF726FBC9
:10103000102409E0002C0ADB0A220023FFF7E9F95B
:10104000019B30321A55641E50EA0102F2D1641C31
:10105000019AC4F1110314440F9A012A03D001220A
:1010600008430DD10AE0084304D000204FF0110BD3
:101070000F9080E7A3EB0B056D1E0DE05B4504DDD3
:101080004FF0000205F1010504E003DA4FF0000221
:10109000A5F10105002AECD000980F99C0E90231B2
:1010A000C0E9004586E70000000024400000F03F52
:1010B000300000000000F0430000E03F2DE9FF4F4A
:1010C00095B09B468946064600250FE2252877D134
:1010D00000242746F84A0121059400E0044316F84D
:1010E000013F203B01FA03F01042F7D130782A2863
:1010F00011D06FF02F033078A0F13002092A16D8F2
:10110000059A44F0020402EB820203EB420210440F
:10111000761C0590EFE759F8042B0592002A03DAB4
:10112000504244F40054059044F00204761C307898
:101130002E2816D116F8010F44F004042A280DD0E9
:101140006FF02F023078A0F13003092B09D807EB9C
:10115000870302EB4303C718761CF3E759F8047BB7
:10116000761C30786C280FD006DC4C2817D0682805
:101170000DD06A2814D104E0742810D07A280FD139
:101180000DE044F400140AE044F4801401E044F457
:1011900040147278824202D104F58014761C761CC9
:1011A000307866280BD013DC582877D009DC00286B
:1011B00075D04528F6D04628F4D047281AD19DE1AD
:1011C00018E0632835D0642879D0652812D195E1DC
:1011D000702873D008DC6728F1D069286FD06E289A
:1011E0000DD06F2806D1B5E073282CD0752875D0A6
:1011F000782874D05A46179990476D1C75E1C4F34E
:101200000250022809D003280DD0D9F80010042874
:101210000DD00D6009F1040967E1D9F80010EA1753
:10122000C1E90052F6E7D9F800100D80F2E70D7021
:10123000F0E719F8041B8DF8001000208DF801006C
:10124000EA46012003E059F804AB4FF0FF30610794
:101250004FF0000102D40DE008F101018846B942C7
:101260000FDA8045F8DB1AF808100029F4D108E0FD
:1012700008F1010188468142FADB1AF808100029BA
:10128000F6D105985B46A0EB080721463846179A29
:1012900000F094FA284400EB080507E04DE029E14E
:1012A0000DE01AF8010B5A4617999047B8F101085A
:1012B000F7D25B4621463846179A13E142E00A22EC
:1012C0000092C4F302524FF0000A022A08D059F8E3
:1012D00004CB032A4FEAEC710AD00DE029E02AE0A2
:1012E00009F1070121F00702F2E802C1914609E085
:1012F0000FFA8CFC4FEAEC71042A03D14FFA8CFCF4
:101300004FEAEC71002907DA0A460021DCF1000CF3
:1013100061EB02012D2202E0220504D52B228DF87B
:101320000420012203E0E20701D02022F7E79046E3
:1013300059E00A2102E010220DE010214FF0000ACE
:1013400000910BE010224FF0000A44F0040408273B
:10135000009203E008224FF0000A0092C4F3025208
:10136000022A05D059F804CB0021032A08D009E04D
:1013700009F1070121F00702F2E802C1914605E0F8
:101380001FFA8CFC042A01D10CF0FF0C4FF000086E
:10139000220728D5702806D0009B83F0100353EA5B
:1013A0000A0305D00EE040228DF80420012208E057
:1013B0005CEA010206D030228DF804208DF8050089
:1013C00002229046009B83F0080353EA0A030AD1E5
:1013D0005CEA010201D1620705D530228DF80420B4
:1013E0004FF001087F1E582804D034A003900EA8A7
:1013F00002900DE036A0F9E753466046009AFFF7E9
:1014000008F884460398825C0298401E029002709D
:101410005CEA0100F0D1029806A9081A00F1200A3E
:10142000600702D524F4803400E00127574502DD2F
:10143000A7EB0A0000E0002000EB0A0100900598ED
:101440004144401A0590E00306D45B462146179AB2
:10145000059800F0B3F90544002706E001A85A46B4
:10146000C05D179990476D1C7F1C4745F6DBE00374
:101470000CD55B462146179A059800F09FF9054464
:1014800004E030205A46179990476D1C0099481E79
:1014900000900029F5DC08E0029802995A4600788D
:1014A000491C0291179990476D1CBAF10001AAF1ED
:1014B000010AF1DC65E10000092801003031323316
:1014C0003435363738396162636465660000000080
:1014D000303132333435363738394142434445466A
:1014E0000000000000F058F90544761C3078002810
:1014F0007FF4ECAD19B02846BDE8F08F620700D448
:10150000062709F1070222F0070CFCE80223E14656
:1015100003F000485FEA080C02D00FF2702C0DE0D7
:101520005FEA045C02D50FF2682C07E05FEAC47C36
:1015300002D00FF2602C01E0AFF2700C4FF0FF38D8
:1015400023F00043CDF850C065280CD006DC4528B8
:1015500009D046281DD047283DD13DE0662818D047
:1015600067287ED138E00021112F01DB112000E037
:10157000781CCDE9000106A90EA8FFF7EDFCDDE916
:101580000F010E9A03910021009207F1010A0491C4
:101590004DE04FF000400097CDE9011006A90EA8DC
:1015A000FFF7DAFCDDE90F0203920E9B119900228E
:1015B000DDF80CA00093049211B9791C00EB010A2C
:1015C000B7EB0A0004D4C0F1FF3007F1010A049020
:1015D000AAEB0700019044E0012F00DA0127002167
:1015E000112F01DD112000E03846CDE9000106A9E8
:1015F0000EA8FFF7B1FCDDE90F010E9A039100215F
:1016000004910092BA4621070CD40399514500DA9F
:101610008A46BAF1010F05DD009AAAF10101515C79
:10162000302908D0B84202DA10F1040F06DA01219D
:10163000CDE9011015E0AAF10101E9E7002805DC78
:10164000049901440491AAEB000102E0411C5145B8
:1016500000DD8A460499401A401C01904FF000407A
:101660000290200704D40198504501DBCDF8048096
:1016700000208DF84F0002980DF14F07B0F1004F98
:1016800025D02B200E9002984FF0020800280CDA8B
:10169000404202902D200E9007E00A210298FEF7AA
:1016A000A2FE3031029007F8011DB8F10001A8F147
:1016B0000108F2DC02980028EFD1791E0E9808701C
:1016C000307800F0200040F0450007F8020D12A825
:1016D000C01B00F107081498007800B1012000EB4E
:1016E0000A01019801EBE07105984144401A401E3F
:1016F0000590E00306D45B462146179A059800F052
:101700005DF805441498007818B15A461799904727
:101710006D1CE00324D55B462146179A059800F01E
:101720004DF805441CE00498002807DBDDE90301BF
:10173000884203DD0098405C179901E0179930203A
:101740005A469047049805F10105401C0490019801
:10175000401E019004D12E205A46179990476D1CC7
:10176000BAF10001AAF1010ADDDC05E017F8010B6E
:101770005A46179990476D1CB8F10001A8F101086D
:10178000F4DC5B462146179A0598ABE62D00000075
:101790002B000000200000002DE9F0410446002548
:1017A0001E461746880404D405E039462020B04779
:1017B0006D1C641EF9D52846BDE8F0812DE9F04185
:1017C000044600251E469046C80301D5302700E098
:1017D0002027880404D505E041463846B0476D1CF3
:1017E000641EF9D52846BDE8F081000070B50446B6
:1017F0000D46E1B20548FFF789FB00BF8021034891
:10180000FFF7BBFA0028F9D0204670BD0038014030
:101810001CB500F0F5FB002001210346C822CDE9EC
:10182000001009A10D4801F0BDFA00200221034675
:10183000C822CDE900100AA10E4801F0B3FA00F069
:1018400065FE00201CBD00007653656D7068724314
:101850006F756E745F5461736B000000AD230008F8
:101860007653656D706872436F756E745F47697605
:1018700065000000492300082DE9F04105460E46A9
:101880001C4807681C480068001D00F0DBFB50B9CD
:101890001948006890F82C10012088401749096801
:1018A000814316480160681C38B936B11248016896
:1018B000091D134800F004FC1AE07C190E4800686A
:1018C0004460BC4207D20C480168091D0D480068FD
:1018D00000F0DCFB0CE008480168091D0A480068BC
:1018E00000F0D4FB09480068844201D20748046034
:1018F000BDE8F0814C00002038000020500000209E
:1019000034040020400000203C000020680000203B
:1019100010B5044600F0E0FB23480068401C224953
:1019200008602248006840B9204804600846006802
:1019300001280DD100F092F90AE01D48006838B97D
:101940001A480068C06AE16A884201D817480460F2
:1019500018480068401C1749086094F82C100120B2
:10196000884015490968084313490860E16A01EB9A
:101970008101124A02EB8100211D00F0A1FB00F061
:10198000EFFB0B48006868B108480068C06AE16A6C
:10199000884207D24FF0805009490860BFF34F8F4B
:1019A000BFF36F8F10BD00004800002038000020FA
:1019B000540000206400002050000020640100203A
:1019C00004ED00E070B523E000F0F2FD134800687C
:1019D00008B9012000E00020054601F02DFBBDB94B
:1019E00000F07AFB0D48C068C468201D00F02AFB97
:1019F0000B480068401E0A4908600A480068401EFB
:101A00000849086000F0ACFB204600F057F800BF22
:101A1000044800680028D7D170BD000020040020D1
:101A2000480000204400002070B504460D46206C9C
:101A300070B1216CE0680844E0606168E068884249
:101A400001D32068E0602846226CE168FEF7D8FBED
:101A500070BD2DE9F04104460F4615464FF00008D1
:101A6000A66B206C28B37DB93946226CA068FEF7BE
:101A7000C7FB216CA0680844A060D4E9011088422B
:101A800017D32068A06014E03946226CE068FEF7A6
:101A9000B7FB216CE068401AE0602168E06888428A
:101AA00003D2216C6068401AE060022D01D106B1BA
:101AB000761E701CA0634046BDE8F08110B5044658
:101AC000206B00F085FB204600F082FB10BD00007B
:101AD00030B54FF48843174800F007042CB1C01DFF
:101AE00020F00700134C041B1B1B0246124C226003
:101AF0000024114D6C60D018083820F007000F4CFE
:101B0000206000240D4D2D686C600C4D2D682C60FC
:101B10001146441A4C60094C24680C60084D4C680E
:101B20002C60084D4C682C604FF00044064D2C6032
:101B300030BD000048040020740000207C0000201C
:101B400084000020800000208800002000BFFFF7F4
:101B500039FF064800680128F9D94FF08050044940
:101B60000860BFF34F8FBFF36F8FF0E76401002071
:101B700004ED00E02DE9F04106460D461746984673
:101B8000069C0DB9246000E02760E663256401210E
:101B9000204600F019FFBDE8F08100002DE9FF5F4D
:101BA00081460E469246DDE90E7B109CAAF10100AB
:101BB000216B01EB800828F0070808F0070008B93E
:101BC000012000E0002028B940F22B321AA11FA00A
:101BD000FFF7A2F9002507E0715D04F134004155DB
:101BE000705D00B902E06D1C102DF5D300BF00211F
:101BF00043200155202F00D31F27E762201D00F04E
:101C000042FA04F1180000F03EFA2461C7F1200006
:101C1000A06164620020606484F848004946404640
:101C2000039A00F0DBF92060BBF1000F01D0CBF884
:101C30000040BDE8FF9F00002E2E5C467265655295
:101C4000544F535C7461736B732E63004572726FF3
:101C5000723A25732C25640D0A00000010B500248B
:101C600007E004EB84010F4A02EB810000F0FEF96B
:101C7000641C202CF5D30C4800F0F8F90B4800F058
:101C8000F5F90B4800F0F2F90A4800F0EFF90A48BC
:101C900000F0ECF904480949086004480849086064
:101CA00010BD000064010020E4030020F8030020C0
:101CB0000C04002020040020340400203C000020FC
:101CC0004000002010B50146164800E00068036897
:101CD0008B42FBD30246436813448B4204D14368D2
:101CE0004C682344436001460A464B681344046829
:101CF000A34211D10C4C03682468A34208D04B685E
:101D00000468646823444B6003681B680B6005E04B
:101D1000054B1B680B6001E003680B60884200D034
:101D2000016010BD740000207C00002070B50546E5
:101D300000F0D2F9A86B08B9012400E0002400F0FB
:101D40000FFA204670BD70B5054600F0C5F9A86BC6
:101D5000E96B884201D1012400E0002400F000FA80
:101D6000204670BD0A490968096809B9012100E0E7
:101D7000002121B14FF0FF31064A116006E004490D
:101D80000968C968C868034A416811607047000063
:101D90003C000020680000200B480068401C08B987
:101DA000012000E0002020B9F42208A112A0FFF7D2
:101DB000B3F800BF502080F31188BFF34F8FBFF3FB
:101DC0006F8F00BF00BFFEE78C0000202E2E5C4608
:101DD00072656552544F535C706F727461626C65CA
:101DE0005C525644535C41524D5F434D335C706FBF
:101DF00072742E63000000004572726F723A257390
:101E00002C25640D0A00000070B5044600F064F94A
:101E100094F9455010E0606A08B9012000E0002004
:101E200038B904F1240001F0ADF818B100F018FB46
:101E300000E003E0681E45B2002DECDC00BFFF208F
:101E400084F8450000F08CF900F046F994F944500C
:101E500010E0206908B9012000E0002048B904F131
:101E6000100001F08FF808B100F0FAFA681E45B2D0
:101E700000E001E0002DECDC00BFFF2084F844000E
:101E800000F06EF970BD00002DE9F04104464FF0FE
:101E9000000800F08DFB3E48006808B9FFF718FE07
:101EA0003C480068204000285FD1A4B1083404F009
:101EB000070080B104F00700C0F10800044404F0FA
:101EC000070008B9012000E0002020B9BF2232A19C
:101ED0003BA0FFF721F8002C47D03D480068844222
:101EE00043D83C4E3046056801E02E462D686868B0
:101EF000A04202D228680028F7D125480068854210
:101F000033D0306800F10808286830606868001B2A
:101F1000102813D92F1907F0070008B9012000E095
:101F2000002020B9EC221CA125A0FEF7F5FF68686F
:101F3000001B78606C603846FFF7C4FE244968686F
:101F40000968081A22490860084600682249096899
:101F5000884203D21E4800681F4908600D4968681E
:101F60000968084368600020286001F065F808F0FF
:101F7000070008B9012000E0002028B94FF496724C
:101F800005A10FA0FEF7C8FF4046BDE8F0810000A4
:101F90007C000020880000202E2E5C467265655271
:101FA000544F535C706F727461626C655C4D656D0B
:101FB0004D616E675C686561705F342E6300000080
:101FC0004572726F723A25732C25640D0A00000069
:101FD000800000207400002084000020001F4FF0CB
:101FE00080730360001F21F001030360001F034B97
:101FF000036014380260203870470000991D000803
:1020000010B54820FEF78CFD4FF44070FEF774FCCD
:102010004FF4E130FEF73AFE04A0FEF77DFF002109
:10202000012000F08BFB0649086010BDB4AEBFDA9A
:10203000B3F5CABCBBAFB3C9B9A6A3A10D0A0000D2
:102040002000002001460A69D1E901309860D1E9F9
:10205000010358605068884201D1886850600020B0
:1020600008611068401E10601068704700F1080198
:1020700041604FF0FF31816000F10801C1600161F2
:1020800000210160704700210161704710B50246D0
:102090000B685C1C0CB9106907E002F1080000E055
:1020A0004068446824689C42FAD944684C604C6893
:1020B000A160886041600A611468641C146010BDEE
:1020C00042684A6093688B609368596091600861C8
:1020D00003685B1C0360704710B500BF502080F39D
:1020E0001188BFF34F8FBFF36F8F00BF0B4800689D
:1020F000401C0A4908600846006801280DD10848BC
:102100000068C0B208B9012000E0002028B94FF4EF
:10211000BD7204A10EA0FEF7FFFE10BD8C000020D2
:1021200004ED00E02E2E5C4672656552544F535C00
:10213000706F727461626C655C525644535C4152BC
:102140004D5F434D335C706F72742E63000000006E
:102150004572726F723A25732C25640D0A000000D7
:1021600010B50B48006828B940F2811209A114A0EB
:10217000FEF7D2FE06480068401E05490860084682
:10218000006820B9002080F3118800BF00BF10BD97
:102190008C0000202E2E5C4672656552544F535CB5
:1021A000706F727461626C655C525644535C41524C
:1021B0004D5F434D335C706F72742E6300000000FE
:1021C0004572726F723A25732C25640D0A00000067
:1021D00070B506463546002E35D0083D2C461A49C6
:1021E00060680968084008B1012000E0002028B9B3
:1021F0004FF4A07215A11FA0FEF78EFE206808B94B
:10220000012000E0002028B940F241120FA119A0DE
:10221000FEF782FE0C4960680968084098B12068A2
:1022200088B90949606809688843606000F0C0F9AE
:102230001449606809680844124908602046FFF79D
:1022400041FD00F0F9FE70BD880000202E2E5C4696
:1022500072656552544F535C706F727461626C6545
:102260005C4D656D4D616E675C686561705F342EB5
:10227000630000004572726F723A25732C25640D5D
:102280000A00000080000020064800684FF47A71C0
:10229000B0FBF1F0401E4FF0E021486107200861DB
:1022A000704700002400002070B5FDF793FF05463D
:1022B000102D11D305F1E02090F8F043104800787C
:1022C000844201DB012000E0002028B94FF42A728B
:1022D0000CA117A0FEF720FE1948006800F4E0608A
:1022E00018490968884201D8012000E0002028B977
:1022F0004FF42E7203A10EA0FEF70EFE70BD00007B
:10230000900000202E2E5C4672656552544F535C3F
:10231000706F727461626C655C525644535C4152DA
:102320004D5F434D335C706F72742E63000000008C
:102330004572726F723A25732C25640D0A000000F5
:102340000CED00E09400002000BF19E0002412E032
:1023500000231A4619460B48006800F08DFB05461D
:10236000012D04D1214608A0FEF7D6FD02E00CA005
:10237000FEF7D2FD641C012CEADB322000F036F8B7
:10238000E4E7000020000020CACDB7C5BCC6CAFDE6
:10239000D0C5BAC5C1BFA3BA25640D0A00000000AC
:1023A000CACDB7C5CAA7B0DC0D0A00000CE00023F7
:1023B0005A1E19460548006800F030FA0446012C00
:1023C00002D103A0FEF7A8FDF1E7000020000020E5
:1023D000BBF1C8A1B5BDBCC6CAFDD0C5BAC5C1BF99
:1023E000A3A1A3A1A3A10D0A0000000070B504469B
:1023F0000025ACB10F48006808B9012000E00020BA
:1024000028B940F2CF420CA110A0FEF785FD00F0E4
:10241000CFF800212046FFF72FFA00F00DFE054609
:102420003DB94FF080500D490860BFF34F8FBFF3A7
:102430006F8F70BD700000202E2E5C467265655255
:10244000544F535C7461736B732E63004572726FEB
:10245000723A25732C25640D0A00000004ED00E09B
:1024600001200149086070475C00002070B50446F7
:102470000D462CB940F6063207A10CA0FEF74CFD24
:102480000E48016818312046FFF700FE012128465A
:10249000FFF7F2F970BD00002E2E5C4672656552A2
:1024A000544F535C7461736B732E63004572726F8B
:1024B000723A25732C25640D0A00000038000020B4
:1024C00010B504462CB940F6C13205A109A0FEF7AB
:1024D00023FD0C48006820600B480068606010BD58
:1024E0002E2E5C4672656552544F535C7461736B5B
:1024F000732E63004572726F723A25732C25640D3A
:102500000A000000600000204C0000201CB51848A4
:1025100000210B468022CDE9001016A1174800F0DB
:1025200041FC0446012C15D100BF502080F31188D6
:10253000BFF34F8FBFF36F8F00BF4FF0FF301049D5
:10254000086001200F49086000200F49086000F072
:102550008BF80BE0601C08B1012000E0002028B9D6
:1025600040F2847209A10EA0FEF7D6FC1CBD00004B
:102570006C00002049444C45000000004D1B000841
:1025800068000020540000204C0000202E2E5C46E5
:1025900072656552544F535C7461736B732E6300A4
:1025A0004572726F723A25732C25640D0A00000083
:1025B00002480068401C0149086070477000002014
:1025C00010B51B48006818B101201A4908602DE0B9
:1025D00000201849086018480068B0FA80F0C0F17F
:1025E0001F0404EB8400154951F8200008B10120B4
:1025F00000E0002028B940F6F62211A115A0FEF750
:102600008BFC04EB84010D4A02EB810041684968B0
:10261000416000F1080142688A4202D1416849687C
:1026200041604168C9680F4A116000BF10BD0000D9
:10263000700000205C000020500000206401002099
:102640002E2E5C4672656552544F535C7461736BF9
:10265000732E63004572726F723A25732C25640DD8
:102660000A000000380000201CB522480146097805
:102670000191FF21024611700146097800919DF8F1
:10268000001001F050011C4A117007211B4A116013
:1026900009E01A490968491E184A11609DF800109E
:1026A0004906090E00919DF8001001F08001802973
:1026B000EFD0124909680902104A116011460988D1
:1026C00001F4E06111600B4A019911700C48006837
:1026D00040F470000A4908600846006840F0704005
:1026E0000860FFF7D1FD002006490860FDF73CFDBA
:1026F00000201CBD00E400E09000002094000020B9
:1027000020ED00E08C00002010B500BF502080F3C9
:102710001188BFF34F8FBFF36F8F00BF00F082FBB4
:1027200018B14FF080500449086000BF002080F3CA
:10273000118800BF10BD000004ED00E070B5054633
:102740000E460DB1012000E0002028B940F2BD2264
:102750000CA111A0FEF7E0FBAE4201D8012000E081
:10276000002028B940F2BE2206A10BA0FEF7D4FB40
:1027700002220021284600F017F8044604B1A6639F
:10278000204670BD2E2E5C4672656552544F535CD8
:1027900071756575652E63004572726F723A2573A7
:1027A0002C25640D0A0000002DE9F84305460E466D
:1027B00090460DB1012000E0002028B94FF4C4720A
:1027C0000DA112A0FEF7A8FB0EB9002701E005FB42
:1027D00006F707F14800FFF757FB044644B104F140
:1027E000480943464A46314628460094FFF7C2F955
:1027F0002046BDE8F88300002E2E5C4672656552C7
:10280000544F535C71756575652E63004572726F28
:10281000723A25732C25640D0A0000002DE9FF474C
:1028200082B005460E461F464FF0000A2C462CB9D2
:1028300040F2DC425AA15FA0FEF76EFB0EB9206C9D
:1028400008B9012000E0002028B940F2DD4254A17F
:1028500058A0FEF761FB00F0D5FA08B9049808B952
:10286000012000E0002028B94FF49C624CA151A047
:10287000FEF752FB00BFFFF72FFCD4F83890B9F1F8
:10288000000F38D0D4F80C8031462046FFF7CCF842
:10289000B7B9A9F10100A063206908B9012000E0DF
:1028A000002010BB04F1100000F06CFBE8B14FF009
:1028B000805044490860BFF34F8FBFF36F8F14E01F
:1028C000C4F80C80606A08B9012000E0002060B9FB
:1028D00004F1240000F056FB38B14FF08050394924
:1028E0000860BFF34F8FBFF36F8FFFF739FC0120F4
:1028F00006B0BDE8F087049818B9FFF731FC002056
:10290000F6E7BAF1000F04D16846FFF7D9FD4FF0A2
:10291000010AFFF725FCFFF74BFEFFF7DDFB94F9FB
:102920004400401C10B9002084F8440094F945008C
:10293000401C10B9002084F84500FFF711FC04A9E1
:10294000684600F0DFF9F0B92046FFF7EFF9A0B1D3
:1029500004F124000499FFF789FD2046FFF754FA9B
:1029600000F06AFB002886D14FF0805015490860BE
:10297000BFF34F8FBFF36F8F7DE72046FFF744FA19
:1029800000F05AFB77E72046FFF73EFA00F054FBD1
:102990002046FFF7CBF90028EED00020A8E7000082
:1029A0002E2E5C4672656552544F535C7175657589
:1029B000652E63004572726F723A25732C25640D83
:1029C0000A00000004ED00E070B505460E462C46F6
:1029D0002CB940F21B121EA122A0FEF79DFAFFF7B0
:1029E0007BFBD4E90F12206801FB0200606000202D
:1029F000A0632068A060E06B401E226C216800FB91
:102A00000210E060FF2084F8440084F845009EB97D
:102A1000206908B9012000E00020A8B904F11000E5
:102A200000F0B0FA80B14FF0805012490860BFF357
:102A30004F8FBFF36F8F07E004F11000FFF716FB15
:102A400004F12400FFF712FBFFF78AFB012070BDA1
:102A50002E2E5C4672656552544F535C71756575D8
:102A6000652E63004572726F723A25732C25640DD2
:102A70000A00000004ED00E02DE9FF4383B00646A4
:102A800088461D464FF0000934462CB940F2D92241
:102A900058A15DA0FEF740FAB8F1000F01D1206CFB
:102AA00008B9012000E0002028B940F2DA2251A143
:102AB00055A0FEF731FA022D02D1E06B012801D1B9
:102AC000012000E0002028B940F2DB2249A14EA0FD
:102AD000FEF722FA00F096F908B9059808B9012026
:102AE00000E0002028B940F2DE2242A146A0FEF715
:102AF00013FA00BFFFF7F0FAA06BE16B884201D335
:102B0000022D28D12A4641462046FEF7A2FF07465D
:102B1000606A08B9012000E0002068B904F12400CF
:102B200000F030FA88B14FF080503B490860BFF3A5
:102B30004F8FBFF36F8F08E03FB14FF080503649A1
:102B40000860BFF34F8FBFF36F8FFFF709FB0120C2
:102B500007B0BDE8F083059818B9FFF701FB002026
:102B6000F6E7B9F1000F04D101A8FFF7A9FC4FF077
:102B70000109FFF7F5FAFFF71BFDFFF7ADFA94F92E
:102B80004400401C10B9002084F8440094F945002A
:102B9000401C10B9002084F84500FFF7E1FA05A9B0
:102BA00001A800F0AFF8F0B92046FFF7CCF8A0B1CB
:102BB00004F110000599FFF759FC2046FFF724F9AE
:102BC00000F03AFA002895D14FF080501249086081
:102BD000BFF34F8FBFF36F8F8CE72046FFF714F9D9
:102BE00000F02AFA86E72046FFF70EF900F024FAF3
:102BF0000020ADE72E2E5C4672656552544F535C43
:102C000071756575652E63004572726F723A257332
:102C10002C25640D0A00000004ED00E02DE9F047CA
:102C200006460F4634462CB940F23C422CA131A056
:102C3000FEF772F9206C08B9012000E0002028B9E5
:102C40004FF4886226A12BA0FEF766F9206808B928
:102C5000606808B9012000E0002028B940F2454230
:102C60001FA124A0FEF758F9FFF71EFB00BF50215B
:102C7000EFF3118081F31188BFF34F8FBFF36F8F94
:102C800000BF0546D4F83890E06B48451ED994F94A
:102C900045A009F10100A0630AF1010070B9606A62
:102CA00008B9012000E0002068B904F1240000F018
:102CB00069F940B13FB10120386004E00AF1010038
:102CC00040B284F845004FF0010801E04FF00008E1
:102CD00000BF85F3118800BF4046BDE8F0870000C3
:102CE0002E2E5C4672656552544F535C7175657546
:102CF000652E63004572726F723A25732C25640D40
:102D00000A0000002DE9F04104460D462CB940F6BA
:102D1000CB3219A11DA0FEF7FFF82DB940F6CC3239
:102D200015A11AA0FEF7F8F8FFF7D6F91B480768B7
:102D30002868401C08B9002619E01949206809686C
:102D4000884204D06068B84201D801260FE060686C
:102D5000381A2968884209D228686168791A401AA5
:102D600028602046FFF7ACFB002600E00126FFF7B5
:102D7000F7F93046BDE8F0812E2E5C46726565524B
:102D8000544F535C7461736B732E63004572726FA2
:102D9000723A25732C25640D0A0000004C000020B7
:102DA000600000202DE9FF4F85B080468946174618
:102DB000DDE912ABB800FFF767F8064656B14C20C4
:102DC000FFF762F804460CB1266304E03046FFF7D3
:102DD000FFF900E000247CB10020CDE900ABCDE993
:102DE00002403A4649464046089BFEF7D7FE204639
:102DF000FEF78EFD012501E04FF0FF35284609B0B2
:102E0000BDE8F08F0549096809B9012005E00449CA
:102E1000096809B9022000E0002070475400002032
:102E2000700000202DE9F0414FF000084148006893
:102E3000002872D140480068451C3F480560EDB944
:102E40003E480068006808B9012000E0002028B969
:102E500040F6D9123AA13FA0FEF75EF8374807685E
:102E600040480068354908603E4807603E480068B1
:102E7000401C3D490860FEF775FF00BF3B480068F5
:102E800085423CD300BF2D480068006808B9012086
:102E900000E0002020B14FF0FF30344908602DE001
:102EA00026480068C068C4686668B54202D22F48E8
:102EB000066023E0201DFFF7C5F8A06A18B104F1F1
:102EC0001800FFF7BFF894F82C100120884028491B
:102ED0000968084326490860E16A01EB8101254A37
:102EE00002EB8100211DFFF7EBF82349E06A096836
:102EF000C96A8842C7D34FF00108C4E700BF1E4823
:102F00000068C06A00EB80001A4951F820000128CF
:102F100001D94FF0010805E0FFE718480068401CA0
:102F2000164908601648006808B14FF0010840468D
:102F3000BDE8F081700000204C0000203C00002023
:102F40002E2E5C4672656552544F535C7461736BF0
:102F5000732E63004572726F723A25732C25640DCF
:102F60000A000000400000206000002068000020EF
:102F7000500000206401002038000020580000208C
:102F80005C00002070B50646F068C4682CB940F6B5
:102F900061321AA11EA0FDF7BFFF04F11800FFF770
:102FA00051F81F480068A8B9201DFFF74BF894F8A6
:102FB0002C10012088401B49096808431949086002
:102FC000E16A01EB8101184A02EB8100211DFFF744
:102FD00077F804E004F118011448FFF771F8144978
:102FE000E06A0968C96A884204D9012501201149AB
:102FF000086000E00025284670BD00002E2E5C46CB
:1030000072656552544F535C7461736B732E630029
:103010004572726F723A25732C25640D0A00000008
:103020007000002050000020640100200C040020EB
:10303000380000205C00002070B5002400263448D1
:10304000006828B94FF4FD6232A137A0FDF764FF94
:10305000FFF742F82E480068401E2D4908600846D8
:10306000006800284FD13448006800284BD024E085
:103070003248C068C46804F11800FEF7E3FF201D61
:10308000FEF7E0FF94F82C10012088402C490968D5
:1030900008432B490860E16A01EB8101294A02EBF0
:1030A0008100211DFFF70CF82749E06A0968C96A09
:1030B000884202D30120254908602048006808B9E9
:1030C000012000E000200028D2D00CB1FEF74AFE1B
:1030D0001F48056865B100BFFFF7A4FE10B10120CD
:1030E0001A4908606D1E002DF6D1002018490860AD
:1030F0001648006838B10126300716490860BFF34A
:103100004F8FBFF36F8FFFF72BF8304670BD000075
:10311000700000202E2E5C4672656552544F535C41
:103120007461736B732E63004572726F723A25730C
:103130002C25640D0A000000480000200C0400202B
:103140005000002064010020380000205C000020B6
:103150005800002004ED00E0783100080000002055
:103160009C000000380F0008143200089C0000206A
:10317000AC4B0000480F00080000000001020304EF
:103180000102030406070809020406080000000003
:1031900000000000000000000000000000A24A043F
:1031A00000000000000000000102030406070809F7
:1031B000000000000000000000000000000000000F
:1031C00000000000000000000000000000000000FF
:1031D00000000000000000000000000000000000EF
:1031E00000000000000000000000000000000000DF
:1031F00000000000000000000000000000000000CF
:1032000000000000AAAAAAAA000000000000000016
:0432100000000000BA
:0400000508000131BD
:00000001FF
