:020000040800F2
:10000000484C0020DD010008110400089503000899
:100010000D04000875020008A10A00080000000095
:100020000000000000000000000000004501000882
:100030007902000800000000890100089D06000800
:10004000F7010008F7010008F7010008F7010008B0
:10005000F7010008F7010008F7010008F7010008A0
:10006000F7010008F7010008F7010008F701000890
:10007000F7010008F7010008F7010008F701000880
:10008000F7010008F7010008F7010008F701000870
:10009000F7010008F7010008F7010008F701000860
:1000A000F7010008F7010008F7010008F701000850
:1000B000F7010008F7010008F7010008F701000840
:1000C000F7010008F7010008F7010008F701000830
:1000D000F701000869070008F7010008F7010008A8
:1000E000F7010008F7010008F7010008F701000810
:1000F000F7010008F7010008F7010008F701000800
:10010000F7010008F7010008F7010008F7010008EF
:10011000F7010008F7010008F7010008F7010008DF
:10012000F7010008F7010008F7010008F7010008CF
:10013000DFF80CD000F08CF800480047C10C000834
:10014000484C0020224B19680868B0E8F00F80F393
:100150000988BFF36F8F4FF0000080F311884EF0D5
:100160000D0E70470000000006480068006880F32C
:10017000088862B661B6BFF34F8FBFF36F8F00DFA1
:1001800000BF00BF08ED00E0EFF30980BFF36F8F01
:100190000F4B1A6820E9F00F106008B54FF05000BF
:1001A00080F31188BFF34F8FBFF36F8F01F050FCC6
:1001B0004FF0000080F31188BDE808401968086816
:1001C000B0E8F00F80F30988BFF36F8F704700BF6E
:1001D00038000020EFF30580704700000648804794
:1001E00006480047FEE7FEE7FEE7FEE7FEE7FEE71C
:1001F000FEE7FEE7FEE7FEE7090700083101000819
:1002000040EA01039B0703D009E008C9121F08C098
:10021000042AFAD203E011F8013B00F8013B521E18
:10022000F9D2704730B50B46014600202022012448
:1002300009E021FA02F59D4205D303FA02F5491BB4
:1002400004FA02F52844151EA2F10102F1DC30BDCA
:10025000064C074D06E0E06840F0010394E8070013
:1002600098471034AC42F6D3FFF766FF7C250008B0
:100270009C25000800BFFEE770472DE9F0410246CB
:1002800000250026002000230024002791F803C049
:100290000CF00F0591F803C00CF0100CBCF1000F2E
:1002A00003D091F802C04CEA050591F800C0BCF1FA
:1002B000000F31D0146800202BE04FF0010C0CFA35
:1002C00000F3B1F800C00CEA03069E4220D183007F
:1002D0004FF00F0C0CFA03F7BC4305FA03FC4CEA91
:1002E000040491F803C0BCF1280F06D14FF0010CB3
:1002F0000CFA00FCC2F814C00AE091F803C0BCF18B
:10030000480F05D14FF0010C0CFA00FCC2F810C0E8
:10031000401C0828D1D31460B1F800C0BCF1FF0F15
:1003200034DD546800202EE000F1080C4FF0010885
:1003300008FA0CF3B1F800C00CEA03069E4221D182
:1003400083004FF00F0C0CFA03F7BC4305FA03FCD3
:100350004CEA040491F803C0BCF1280F05D100F168
:10036000080C08FA0CF8C2F8148091F803C0BCF12C
:10037000480F07D100F1080C4FF0010808FA0CF8FB
:10038000C2F81080401C0828CED35460BDE8F0812C
:100390004161704700BFFEE708B50121102000F061
:1003A0007BF84FF40050ADF8000010208DF80300EA
:1003B00003208DF8020069460448FFF75EFF4FF402
:1003C00000510248FFF7E4FF08BD000000100140A3
:1003D00000BF002415E0601CC4B20A2C07D1002421
:1003E00000231A4619460748006801F057FD0648E1
:1003F000C06880F400500449C8604FF4FA7001F0FE
:100400003DFAE8E7200000200010014000BFFEE7B1
:100410007047000070B5002100230F22C47804B398
:10042000154C246804F4E064C4F5E064210AC1F1C9
:100430000403CA40447804FA03F184781440214349
:1004400009010E4C0678A155047804F01F0501241B
:10045000AC4005786D11AD0005F1E025C5F800410F
:1004600009E0047804F01F050124AC40044D06782F
:10047000761145F8264070BD0CED00E000E400E088
:1004800080E100E002490143024A11607047000028
:100490000000FA050CED00E029B1064A926902431A
:1004A000044B9A6104E0034A92698243014B9A61CA
:1004B000704700000010024030B5002100220024E7
:1004C00000232D4D6D6805F00C0121B1042905D0E4
:1004D000082923D105E0294D056022E0274D05605C
:1004E0001FE0254D6D6805F47012234D6D6805F40D
:1004F0008034022505EB92421CB9214D554305601D
:100500000BE01D4D6D6805F400351DB11C4D5543C4
:10051000056002E0194D5543056002E0174D056086
:1005200000BF00BF144D6D6805F0F0010909154DBD
:100530006B5C0568DD4045600F4D6D6805F4E0615A
:10054000090A104D6B5C4568DD4085600A4D6D6899
:1005500005F46051C90A0B4D6B5C4568DD40C56010
:10056000054D6D6805F44041890B074D6B5CC5680E
:10057000B5FBF3F5056130BD0010024000127A00B2
:1005800000093D00000000201000002010B500F020
:1005900001F810BD0CB500200190009033480068B0
:1005A00040F480303149086000BF3048006800F4F2
:1005B000003000900198401C0190009818B90198F3
:1005C000B0F5A06FF1D12948006800F4003010B1F7
:1005D0000120009001E0002000900098012843D104
:1005E0002348006840F01000214908600846006870
:1005F00020F0030008600846006840F00200086030
:100600001A484068194948600846406848600846EA
:10061000406840F4806048600846406820F47C10E0
:1006200048600846406840F4E810486008460068A2
:1006300040F08070086000BF0C48006800F0007057
:100640000028F9D00948406820F0030007494860B5
:100650000846406840F00200486000BF0348406818
:1006600000F00C000828F9D10CBD00000010024079
:1006700000200240042808D14FF0E021096941F030
:1006800004014FF0E022116107E04FF0E021096919
:1006900021F004014FF0E0221161704710B501F024
:1006A000C3FD012801D001F077FA10BD70B50546F1
:1006B0000420FFF7DFFF104800681049B0FBF1F09D
:1006C0000F4908700C4800680C49B0FBF1F44FF476
:1006D0007A70444301200B4908804FF0E020006904
:1006E00040F002004FF0E0210861084644610069D3
:1006F00040F00100086170BD2400002040420F005E
:10070000140000201600002010B51348006840F0C7
:1007100001001149086008464068104908400E4928
:100720004860084600680E4908400B4908600846C2
:10073000006820F4802008600846406820F4FE002D
:1007400048604FF41F008860FFF720FF4FF0006003
:100750000449086010BD0000001002400000FFF8CE
:10076000FFFFF6FE08ED00E038B540F225511F48C6
:1007700000F0D6F8D0B11E48008898B91B48001D7B
:100780000088C4B21B4801880088401C194A1080A8
:10079000194844541648008820B97D2C02D1012004
:1007A000134908802021114800F098F840F22441B4
:1007B0000E4800F0B5F8C0B110A000F073F90B4876
:1007C0000088C4B20948001D0088C4B269461048B8
:1007D000006801F035FC009838B14FF080500D49A9
:1007E0000860BFF34F8FBFF36F8F38BD00380140F3
:1007F000180000201A0000209C000020BFD5CFD098
:10080000D6D0B6CF2CBDD3CAD5CDEAB1CF0D0A0014
:100810002000002004ED00E010B586B00446012160
:100820000420FFF739FE01218803FFF735FE4FF45E
:100830000070ADF8140003208DF8160018208DF814
:10084000170005A92348FFF718FD4FF48060ADF8A5
:10085000140004208DF8170005A91E48FFF70DFDB0
:1008600001940020ADF80800ADF80A00ADF80C00C6
:10087000ADF810000C20ADF80E0001A9164800F0EC
:100880009FF82021144800F029F80121124800F0B7
:100890002EF84021104800F021F8012240F22551A5
:1008A0000D4800F067F8012240F224410A4800F0A8
:1008B00061F825208DF8000008208DF80100002047
:1008C0008DF8020001208DF803006846FFF7A2FDB5
:1008D00006B010BD000801400038014001F400726C
:1008E000B2F5007F00D100BFCA430280704721B13A
:1008F000828942F40052828104E082894DF6FF73BE
:100900001A408281704702460020B1F5007F00D175
:1009100000BF13880B400BB1012000E0002070479E
:1009200070B50246002400230025002040F66A1618
:10093000B14200D100BFC1F3421501F01F030126EF
:1009400006FA03F3012D02D19689334006E0022D09
:1009500002D1168A334001E0968A33400C120126F8
:1009600006FA04F41688344013B10CB1012000E0FB
:10097000002070BDF0B503460024002600250020AD
:1009800040F66A17B94200D100BF1846C1F34214BD
:1009900001F01F06012707FA06F5012C01D10C30E2
:1009A00004E0022C01D1103000E014301AB10768C5
:1009B0002F43076002E00768AF430760F0BD000007
:1009C0002DE9F04786B005460E460024A24600BF3A
:1009D000A1460027B08900B100BF2F462C8A4CF6F3
:1009E000FF700440F08804432C82AC894EF6F3106B
:1009F0000440B08831890843718908430443AC81BD
:100A0000AC8A4FF6FF400440B0890443AC8201A891
:100A1000FFF752FD1F48874202D1DDF810A001E028
:100A2000DDF80CA0A88900F4004040B10AEBCA0030
:100A300000EB0A1031684900B0FBF1F807E00AEB5F
:100A4000CA0000EB0A1031688900B0FBF1F864209D
:100A5000B8FBF0F004012009642101FB1089A8898A
:100A600000F4004040B1322000EBC900B0FBF1F0CF
:100A700000F00700044308E0322000EB0910642175
:100A8000B0FBF1F000F00F0004432C8106B0BDE88C
:100A9000F087000000380140C1F3080282807047EF
:100AA00000BFFEE70FB4054B10B503A9044A029836
:100AB00000F018F810BC5DF814FB00009D0C000855
:100AC0009800002002E008C8121F08C1002AFAD1CD
:100AD00070477047002001E001C1121F002AFBD1BE
:100AE000704700002DE9FF4F8BB09A460F46054630
:100AF000002606E025280BD052460D9990476D1C24
:100B0000761C28780028F5D10FB03046BDE8F08F6C
:100B10000024A0460122604900E0044315F8013F8B
:100B2000203B02FA03F00842F7D128782E2817D18B
:100B300015F8010F44F004042A280ED06FF02F029C
:100B40002878A0F1300109290AD808EB880102EBC6
:100B5000410100EB01086D1CF2E757F8048B6D1C96
:100B6000287869283ED006DC0028CDD063280BD039
:100B7000642804D136E0732810D075284BD0524633
:100B80000D999047761C85E017F8040B8DF800004E
:100B900000208DF80100E946012003E057F8049B8E
:100BA0004FF0FF3061074FF0000401D40AE0641CED
:100BB00044450DDA8442FADB19F804100029F6D115
:100BC00006E0641C8442FCDB19F804100029F8D10B
:100BD000264404E019F8010B52460D999047641E13
:100BE000F8D257E001CF4FF00A0B002802DA40425A
:100BF0002D2102E0210504D52B218DF8241001219F
:100C000003E0E10705D02021F7E70DF12009089165
:100C10000CE00021F9E701CF4FF00A0BF9E7594644
:100C2000FFF700FB01F1300209F8012D0028F6D191
:100C3000ADEB090000F1200B600701D44FF0010873
:100C4000D84502DDA8EB0B0000E000208046002420
:100C500006E009A85246005D0D999047641C761C79
:100C600008988442F5DB04E0302052460D99904705
:100C7000761CB8F10001A8F10108F5DC05E019F8CF
:100C8000010B52460D999047761CBBF10001ABF168
:100C9000010BF4DC6D1C34E70928010070B5044633
:100CA0000D46E1B20548FFF7F7FE00BF802103487B
:100CB000FFF729FE0028F9D0204670BD003801401A
:100CC0001CB500F0EFFB002001210346C822CDE94E
:100CD000001009A10B4801F077FA0020012103461A
:100CE000C822CDE9001008A10B4801F06DFA00F010
:100CF00055FE00201CBD00004C45445F5461736BE1
:100D000000000000D10300087653656D7068725FC3
:100D10005461736B00000000151800082DE9F041C4
:100D200005460E461C4807681C480068001D00F078
:100D3000EFFB50B91948006890F82C10012088404A
:100D400017490968814316480160681C38B936B1F3
:100D500012480168091D134800F018FC1AE07C19BC
:100D60000E4800684460BC4207D20C480168091D67
:100D70000D48006800F0F0FB0CE008480168091D10
:100D80000A48006800F0E8FB09480068844201D284
:100D900007480460BDE8F0814C00002038000020C6
:100DA0005000002034040020400000203C000020BF
:100DB0006800002010B5044600F0F4FB23480068EA
:100DC000401C224908602248006840B9204804605D
:100DD0000846006801280DD100F092F90AE01D488C
:100DE000006838B91A480068C06AE16A884201D8C8
:100DF0001748046018480068401C1749086094F8B8
:100E00002C100120884015490968084313490860DF
:100E1000E16A01EB8101124A02EB8100211D00F021
:100E2000B5FB00F003FC0B48006868B10848006897
:100E3000C06AE16A884207D24FF0805009490860D1
:100E4000BFF34F8FBFF36F8F10BD0000480000202D
:100E500038000020540000206400002050000020D2
:100E60006401002004ED00E070B523E000F0E8FD2F
:100E70001348006808B9012000E00020054601F091
:100E8000EDFABDB900F08EFB0D48C068C468201DA6
:100E900000F03EFB0B480068401E0A4908600A4803
:100EA0000068401E0849086000F0C0FB204600F0C2
:100EB00057F800BF044800680028D7D170BD000073
:100EC00020040020480000204400002070B50446A3
:100ED0000D46206C70B1216CE0680844E0606168E8
:100EE000E068884201D32068E0602846226CE1680F
:100EF000FFF786F970BD2DE9F04104460F4615460F
:100F00004FF00008A66B206C28B37DB93946226CDF
:100F1000A068FFF775F9216CA0680844A060D4E9C7
:100F20000110884217D32068A06014E03946226C73
:100F3000E068FFF765F9216CE068401AE06021681D
:100F4000E068884203D2216C6068401AE060022D9C
:100F500001D106B1761E701CA0634046BDE8F08149
:100F600010B50446206B00F099FB204600F096FB7C
:100F700010BD000030B54FF48843174800F0070457
:100F80002CB1C01D20F00700134C041B1B1B024694
:100F9000124C22600024114D6C60D018083820F0EB
:100FA00007000F4C206000240D4D2D686C600C4D27
:100FB0002D682C601146441A4C60094C24680C6062
:100FC000084D4C682C60084D4C682C604FF0004474
:100FD000064D2C6030BD0000480400207400002045
:100FE0007C00002084000020800000208800002079
:100FF00000BFFFF739FF064800680128F9D94FF014
:10100000805004490860BFF34F8FBFF36F8FF0E744
:101010006401002004ED00E02DE9F04106460D4694
:1010200017469846069C0DB9246000E02760E663E9
:1010300025640121204600F0D9FEBDE8F0810000C2
:101040002DE9FF5F81460E469246DDE90E7B109C3E
:10105000AAF10100216B01EB800828F0070808F0D5
:10106000070008B9012000E0002028B940F22B3227
:101070001AA11FA0FFF716FD002507E0715D04F11E
:1010800034004155705D00B902E06D1C102DF5D3A0
:1010900000BF002143200155202F00D31F27E76206
:1010A000201D00F056FA04F1180000F052FA2461F5
:1010B000C7F12000A06164620020606484F84800E9
:1010C00049464046039A00F0DBF92060BBF1000F6F
:1010D00001D0CBF80040BDE8FF9F00002E2E5C46FB
:1010E00072656552544F535C7461736B732E630069
:1010F0004572726F723A25732C25640D0A00000048
:1011000010B5002407E004EB84010F4A02EB8100D4
:1011100000F012FA641C202CF5D30C4800F00CFAF5
:101120000B4800F009FA0B4800F006FA0A4800F0F4
:1011300003FA0A4800F000FA044809490860044824
:101140000849086010BD000064010020E40300208D
:10115000F80300200C0400202004002034040020A8
:101160003C0000204000002010B50146164800E079
:10117000006803688B42FBD30246436813448B42EA
:1011800004D143684C682344436001460A464B68D7
:1011900013440468A34211D10C4C03682468A34291
:1011A00008D04B680468646823444B6003681B687C
:1011B0000B6005E0054B1B680B6001E003680B60EA
:1011C000884200D0016010BD740000207C00002027
:1011D00070B5054600F0E6F9A86B08B9012400E0F7
:1011E000002400F023FA204670BD70B5054600F0DB
:1011F000D9F9A86BE96B884201D1012400E00024F1
:1012000000F014FA204670BD0A490968096809B956
:10121000012100E0002121B14FF0FF31064A1160A9
:1012200006E004490968C968C868034A4168116052
:10123000704700003C000020680000200B48006858
:10124000401C08B9012000E0002020B9F42208A1C8
:1012500012A0FFF727FC00BF502080F31188BFF3D6
:101260004F8FBFF36F8F00BF00BFFEE78C000020E1
:101270002E2E5C4672656552544F535C706F7274CB
:1012800061626C655C525644535C41524D5F434D04
:10129000335C706F72742E63000000004572726FD1
:1012A000723A25732C25640D0A00000070B50446BF
:1012B00000F078F994F9455010E0606A08B901200F
:1012C00000E0002038B904F1240001F06DF818B1F5
:1012D00000F00EFB00E003E0681E45B2002DECDCE0
:1012E00000BFFF2084F8450000F0A0F900F05AF993
:1012F00094F9445010E0206908B9012000E0002072
:1013000048B904F1100001F04FF808B100F0F0FA0C
:10131000681E45B200E001E0002DECDC00BFFF20BC
:1013200084F8440000F082F970BD00002DE9F0411E
:1013300004464FF0000800F083FB3E48006808B9FF
:10134000FFF718FE3C480068204000285FD1A4B198
:10135000083404F0070080B104F00700C0F1080071
:10136000044404F0070008B9012000E0002020B97F
:10137000BF2232A13BA0FFF795FB002C47D03D4890
:101380000068844243D83C4E3046056801E02E4652
:101390002D686868A04202D228680028F7D1254845
:1013A0000068854233D0306800F108082868306052
:1013B0006868001B102813D92F1907F0070008B917
:1013C000012000E0002020B9EC221CA125A0FFF79D
:1013D00069FB6868001B78606C603846FFF7C4FEE4
:1013E000244968680968081A2249086008460068A4
:1013F00022490968884203D21E4800681F490860D4
:101400000D4968680968084368600020286001F099
:1014100025F808F0070008B9012000E0002028B9ED
:101420004FF4967205A10FA0FFF73CFB4046BDE8C4
:10143000F08100007C000020880000202E2E5C46F9
:1014400072656552544F535C706F727461626C6563
:101450005C4D656D4D616E675C686561705F342ED3
:10146000630000004572726F723A25732C25640D7B
:101470000A0000008000002074000020840000208A
:10148000001F4FF080730360001F21F00103036011
:10149000001F034B036014380260203870470000BF
:1014A0003D12000810B54820FFF700F94FF44070D6
:1014B000FEF7E8FF4FF4E130FFF7AEF90EA0FFF7BB
:1014C000F1FAFEF769FF03220021012000F07EFB04
:1014D0000E4908600846006830B100231A461946D4
:1014E0000A48006800F0DAFC00231A46194607484B
:1014F000006800F0A5FB10BDB4AEBFDAB3F5CABCFE
:10150000BBAFB3C9B9A6A3A10D0A000020000020FB
:1015100001460A69D1E901309860D1E901035860B8
:101520005068884201D188685060002008611068C6
:10153000401E10601068704700F1080141604FF0D4
:10154000FF31816000F10801C1600161002101608B
:10155000704700210161704710B502460B685C1CA2
:101560000CB9106907E002F1080000E04068446827
:1015700024689C42FAD944684C604C68A160886039
:1015800041600A611468641C146010BD42684A60BE
:1015900093688B60936859609160086103685B1C75
:1015A0000360704710B500BF502080F31188BFF36F
:1015B0004F8FBFF36F8F00BF0B480068401C0A4974
:1015C00008600846006801280DD108480068C0B2CC
:1015D00008B9012000E0002028B94FF4BD7204A131
:1015E0000EA0FFF75FFA10BD8C00002004ED00E0B4
:1015F0002E2E5C4672656552544F535C706F727448
:1016000061626C655C525644535C41524D5F434D80
:10161000335C706F72742E63000000004572726F4D
:10162000723A25732C25640D0A00000010B50B4892
:10163000006828B940F2811209A114A0FFF732FA1C
:1016400006480068401E054908600846006820B941
:10165000002080F3118800BF00BF10BD8C00002067
:101660002E2E5C4672656552544F535C706F7274D7
:1016700061626C655C525644535C41524D5F434D10
:10168000335C706F72742E63000000004572726FDD
:10169000723A25732C25640D0A00000070B50646C9
:1016A0003546002E35D0083D2C461A496068096839
:1016B000084008B1012000E0002028B94FF4A072D2
:1016C00015A11FA0FFF7EEF9206808B9012000E07E
:1016D000002028B940F241120FA119A0FFF7E2F94A
:1016E0000C4960680968084098B1206888B90949C0
:1016F000606809688843606000F0A2F91449606876
:1017000009680844124908602046FFF72DFD00F0E3
:10171000A5FE70BD880000202E2E5C4672656552C5
:10172000544F535C706F727461626C655C4D656D93
:101730004D616E675C686561705F342E6300000008
:101740004572726F723A25732C25640D0A000000F1
:1017500080000020064800684FF47A71B0FBF1F079
:10176000401E4FF0E02148610720086170470000EB
:101770002400002070B5FEF72DFD0546102D11D375
:1017800005F1E02090F8F04310480078844201DB36
:10179000012000E0002028B94FF42A720CA117A004
:1017A000FFF780F91948006800F4E06018490968FB
:1017B000884201D8012000E0002028B94FF42E72A1
:1017C00003A10EA0FFF76EF970BD0000900000208D
:1017D0002E2E5C4672656552544F535C706F727466
:1017E00061626C655C525644535C41524D5F434D9F
:1017F000335C706F72742E63000000004572726F6C
:10180000723A25732C25640D0A0000000CED00E0EF
:10181000940000200FE000235A1E19460648006875
:1018200000F00EFA044605A0FFF73CF9012C02D1A6
:101830000BA0FFF737F9EEE7200000202A2A2A2A1A
:101840002A2A2A2A2A2A2AD0C5BAC5C1BFB2E2CA80
:10185000D42A2A2A2A2A2A2A2A2A2A2A0D0A0000CF
:10186000BBF1C8A1B5BDB6FED6B5D0C5BAC5C1BF1E
:10187000A3A1A3A1A3A10D0A0000000070B5044616
:101880000025ACB10F48006808B9012000E0002035
:1018900028B940F2CF420CA110A0FFF703F900F0E5
:1018A000CFF800212046FFF739FA00F0D7FD0546B2
:1018B0003DB94FF080500D490860BFF34F8FBFF323
:1018C0006F8F70BD700000202E2E5C4672656552D1
:1018D000544F535C7461736B732E63004572726F67
:1018E000723A25732C25640D0A00000004ED00E017
:1018F00001200149086070475C00002070B5044673
:101900000D462CB940F6063207A10CA0FFF7CAF825
:101910000E48016818312046FFF71EFE01212846B7
:10192000FFF7FCF970BD00002E2E5C467265655213
:10193000544F535C7461736B732E63004572726F06
:10194000723A25732C25640D0A000000380000202F
:1019500010B504462CB940F6C13205A109A0FFF725
:10196000A1F80C48006820600B480068606010BD5A
:101970002E2E5C4672656552544F535C7461736BD6
:10198000732E63004572726F723A25732C25640DB5
:101990000A000000600000204C0000201CB5184820
:1019A00000210B468022CDE9001016A1174800F057
:1019B0000BFC0446012C15D100BF502080F3118888
:1019C000BFF34F8FBFF36F8F00BF4FF0FF30104951
:1019D000086001200F49086000200F49086000F0EE
:1019E0008BF80BE0601C08B1012000E0002028B952
:1019F00040F2847209A10EA0FFF754F81CBD00004C
:101A00006C00002049444C4500000000F10F000824
:101A100068000020540000204C0000202E2E5C4660
:101A200072656552544F535C7461736B732E63001F
:101A30004572726F723A25732C25640D0A000000FE
:101A400002480068401C014908607047700000208F
:101A500010B51B48006818B101201A4908602DE034
:101A600000201849086018480068B0FA80F0C0F1FA
:101A70001F0404EB8400154951F8200008B101202F
:101A800000E0002028B940F6F62211A115A0FFF7CA
:101A900009F804EB84010D4A02EB810041684968B2
:101AA000416000F1080142688A4202D141684968F8
:101AB00041604168C9680F4A116000BF10BD000055
:101AC000700000205C000020500000206401002015
:101AD0002E2E5C4672656552544F535C7461736B75
:101AE000732E63004572726F723A25732C25640D54
:101AF0000A000000380000201CB522480146097881
:101B00000191FF21024611700146097800919DF86C
:101B1000001001F050011C4A117007211B4A11608E
:101B200009E01A490968491E184A11609DF8001019
:101B30004906090E00919DF8001001F080018029EE
:101B4000EFD0124909680902104A1160114609884C
:101B500001F4E06111600B4A019911700C480068B2
:101B600040F470000A4908600846006840F0704080
:101B70000860FFF7EFFD002006490860FEF7F4FA61
:101B800000201CBD00E400E0900000209400002034
:101B900020ED00E08C00002010B500BF502080F345
:101BA0001188BFF34F8FBFF36F8F00BF00F04CFB66
:101BB00018B14FF080500449086000BF002080F346
:101BC000118800BF10BD000004ED00E02DE9F843CE
:101BD00005460E4690460DB1012000E0002028B9D0
:101BE0004FF4C4720DA112A0FEF75CFF0EB90027DE
:101BF00001E005FB06F707F14800FFF797FB0446F5
:101C000044B104F1480943464A4631462846009407
:101C1000FFF702FA2046BDE8F88300002E2E5C464E
:101C200072656552544F535C71756575652E63001E
:101C30004572726F723A25732C25640D0A000000FC
:101C40002DE9FF4782B005460E461F464FF0000AB9
:101C50002C462CB940F2DC425AA15FA0FEF722FFCD
:101C60000EB9206C08B9012000E0002028B940F22C
:101C7000DD4254A158A0FEF715FF00F0D5FA08B9CF
:101C8000049808B9012000E0002028B94FF49C62B4
:101C90004CA151A0FEF706FF00BFFFF783FCD4F86C
:101CA0003890B9F1000F38D0D4F80C803146204676
:101CB000FFF70CF9B7B9A9F10100A063206908B9D1
:101CC000012000E0002010BB04F1100000F06CFBCC
:101CD000E8B14FF0805044490860BFF34F8FBFF325
:101CE0006F8F14E0C4F80C80606A08B9012000E02E
:101CF000002060B904F1240000F056FB38B14FF029
:101D0000805039490860BFF34F8FBFF36F8FFFF7E3
:101D10008DFC012006B0BDE8F087049818B9FFF7E4
:101D200085FC0020F6E7BAF1000F04D16846FFF702
:101D30000FFE4FF0010AFFF779FCFFF781FEFFF776
:101D400031FC94F94400401C10B9002084F8440090
:101D500094F94500401C10B9002084F84500FFF7B5
:101D600065FC04A9684600F0DFF9F0B92046FFF7EA
:101D70002FFAA0B104F124000499FFF7BFFD20461B
:101D8000FFF794FA00F06AFB002886D14FF08050EC
:101D900015490860BFF34F8FBFF36F8F7DE7204673
:101DA000FFF784FA00F05AFB77E72046FFF77EFA48
:101DB00000F054FB2046FFF70BFA0028EED000207D
:101DC000A8E700002E2E5C4672656552544F535CA6
:101DD00071756575652E63004572726F723A257371
:101DE0002C25640D0A00000004ED00E070B50546E6
:101DF0000E462C462CB940F21B121EA122A0FEF763
:101E000051FEFFF7CFFBD4E90F12206801FB02005F
:101E100060600020A0632068A060E06B401E226C20
:101E2000216800FB0210E060FF2084F8440084F881
:101E300045009EB9206908B9012000E00020A8B93A
:101E400004F1100000F0B0FA80B14FF08050124958
:101E50000860BFF34F8FBFF36F8F07E004F11000EE
:101E6000FFF76AFB04F12400FFF766FBFFF7DEFBD8
:101E7000012070BD2E2E5C4672656552544F535C36
:101E800071756575652E63004572726F723A2573C0
:101E90002C25640D0A00000004ED00E02DE9FF434D
:101EA00083B0064688461D464FF0000934462CB9DB
:101EB00040F2D92258A15DA0FEF7F4FDB8F1000F61
:101EC00001D1206C08B9012000E0002028B940F2BF
:101ED000DA2251A155A0FEF7E5FD022D02D1E06BFB
:101EE000012801D1012000E0002028B940F2DB22C6
:101EF00049A14EA0FEF7D6FD00F096F908B9059865
:101F000008B9012000E0002028B940F2DE2242A1F9
:101F100046A0FEF7C7FD00BFFFF744FBA06BE16BD7
:101F2000884201D3022D28D12A4641462046FEF799
:101F3000E2FF0746606A08B9012000E0002068B9A6
:101F400004F1240000F030FA88B14FF080503B4992
:101F50000860BFF34F8FBFF36F8F08E03FB14FF0C2
:101F6000805036490860BFF34F8FBFF36F8FFFF784
:101F70005DFB012007B0BDE8F083059818B9FFF7B5
:101F800055FB0020F6E7B9F1000F04D101A8FFF7D7
:101F9000DFFC4FF00109FFF749FBFFF751FDFFF7A9
:101FA00001FB94F94400401C10B9002084F844005F
:101FB00094F94500401C10B9002084F84500FFF753
:101FC00035FB05A901A800F0AFF8F0B92046FFF7EE
:101FD0000CF9A0B104F110000599FFF78FFC204621
:101FE000FFF764F900F03AFA002895D14FF08050DD
:101FF00012490860BFF34F8FBFF36F8F8CE7204605
:10200000FFF754F900F02AFA86E72046FFF74EF969
:1020100000F024FA0020ADE72E2E5C467265655272
:10202000544F535C71756575652E63004572726F10
:10203000723A25732C25640D0A00000004ED00E0BF
:102040002DE9F04706460F4634462CB940F23C4293
:102050002CA131A0FEF726FD206C08B9012000E07C
:10206000002028B94FF4886226A12BA0FEF71AFDA4
:10207000206808B9606808B9012000E0002028B98C
:1020800040F245421FA124A0FEF70CFDFFF772FBB2
:1020900000BF5021EFF3118081F31188BFF34F8F00
:1020A000BFF36F8F00BF0546D4F83890E06B48450A
:1020B0001ED994F945A009F10100A0630AF10100BD
:1020C00070B9606A08B9012000E0002068B904F125
:1020D000240000F069F940B13FB10120386004E00C
:1020E0000AF1010040B284F845004FF0010801E018
:1020F0004FF0000800BF85F3118800BF4046BDE8DF
:10210000F08700002E2E5C4672656552544F535C7A
:1021100071756575652E63004572726F723A25732D
:102120002C25640D0A0000002DE9F04104460D46FF
:102130002CB940F6CB3219A11DA0FEF7B3FC2DB986
:1021400040F6CC3215A11AA0FEF7ACFCFFF72AFA34
:102150001B4807682868401C08B9002619E019497F
:1021600020680968884204D06068B84201D8012616
:102170000FE06068381A2968884209D228686168C7
:10218000791A401A28602046FFF7E2FB002600E09B
:102190000126FFF74BFA3046BDE8F0812E2E5C4653
:1021A00072656552544F535C7461736B732E630098
:1021B0004572726F723A25732C25640D0A00000077
:1021C0004C000020600000202DE9FF4F85B08046C4
:1021D00089461746DDE912ABB800FFF7A7F80646B7
:1021E00056B14C20FFF7A2F804460CB1266304E078
:1021F0003046FFF753FA00E000247CB10020CDE91F
:1022000000ABCDE902403A4649464046089BFEF7FE
:1022100017FF2046FEF7CEFD012501E04FF0FF3508
:10222000284609B0BDE8F08F0549096809B90120C1
:1022300005E00449096809B9022000E00020704760
:1022400054000020700000202DE9F0414FF00008FC
:1022500041480068002872D140480068451C3F484A
:102260000560EDB93E480068006808B9012000E04B
:10227000002028B940F6D9123AA13FA0FEF712FC7F
:102280003748076840480068354908603E4807609D
:102290003E480068401C3D490860FEF7B5FF00BF9E
:1022A0003B48006885423CD300BF2D480068006869
:1022B00008B9012000E0002020B14FF0FF30344980
:1022C00008602DE026480068C068C4686668B542AA
:1022D00002D22F48066023E0201DFFF719F9A06AFB
:1022E00018B104F11800FFF713F994F82C1001202D
:1022F000884028490968084326490860E16A01EBDB
:102300008101254A02EB8100211DFFF73FF9234996
:10231000E06A0968C96A8842C7D34FF00108C4E778
:1023200000BF1E480068C06A00EB80001A4951F8DF
:102330002000012801D94FF0010805E0FFE7184807
:102340000068401C164908601648006808B14FF044
:1023500001084046BDE8F081700000204C000020DC
:102360003C0000202E2E5C4672656552544F535C33
:102370007461736B732E63004572726F723A2573CA
:102380002C25640D0A0000004000002060000020A1
:102390006800002050000020640100203800002068
:1023A000580000205C00002070B50646F068C46844
:1023B0002CB940F661321AA11EA0FEF773FB04F19E
:1023C0001800FFF7A5F81F480068A8B9201DFFF7FF
:1023D0009FF894F82C10012088401B490968084395
:1023E00019490860E16A01EB8101184A02EB81009A
:1023F000211DFFF7CBF804E004F118011448FFF7A2
:10240000C5F81449E06A0968C96A884204D90125F7
:1024100001201149086000E00025284670BD000039
:102420002E2E5C4672656552544F535C7461736B1B
:10243000732E63004572726F723A25732C25640DFA
:102440000A000000700000205000002064010020FD
:102450000C040020380000205C00002070B500242F
:1024600000263448006828B94FF4FD6232A137A035
:10247000FEF718FBFFF796F82E480068401E2D491E
:1024800008600846006800284FD1344800680028DA
:102490004BD024E03248C068C46804F11800FFF74C
:1024A00037F8201DFFF734F894F82C1001208840ED
:1024B0002C49096808432B490860E16A01EB810156
:1024C000294A02EB8100211DFFF760F82749E06AE5
:1024D0000968C96A884202D301202549086020485A
:1024E000006808B9012000E000200028D2D00CB11B
:1024F000FEF78AFE1F48056865B100BFFFF7A4FE1E
:1025000010B101201A4908606D1E002DF6D100207F
:10251000184908601648006838B101263007164986
:102520000860BFF34F8FBFF36F8FFFF77FF8304620
:1025300070BD0000700000202E2E5C467265655252
:10254000544F535C7461736B732E63004572726FEA
:10255000723A25732C25640D0A0000004800002003
:102560000C040020500000206401002038000020EE
:102570005C0000205800002004ED00E09C250008CD
:10258000000000209C000000C40A00083826000853
:102590009C000020AC4B0000D40A000800000000A2
:1025A00001020304010203040607080902040608E5
:1025B000000000000000000000000000000000001B
:1025C00000A24A0400000000000000000102030411
:1025D00006070809000000000000000000000000DD
:1025E00000000000000000000000000000000000EB
:1025F00000000000000000000000000000000000DB
:1026000000000000000000000000000000000000CA
:1026100000000000000000000000000000000000BA
:102620000000000000000000AAAAAAAA0000000002
:082630000000000000000000A2
:0400000508000131BD
:00000001FF
